:100000006F10507D1300000013000000130000006B
:100010001300000013000000130000001300000094
:100020001300000013000000130000001300000084
:08003000130000007300100032
:100038000000000000000000681F00006A1F0000A8
:10004800000000006C1F000000000000000000001D
:100058006E1F0000701F000000000000000000007C
:100068002427000000000000741F000000000000AA
:10007800761F0000781F00007A1F00007C1F000018
:100088007E1F0000801F0000821F0000841F0000E8
:10009800861F0000881F00008A1F00008C1F0000B8
:1000A8008E1F0000901F0000921F0000941F000088
:1000B800961F0000981F00009A1F00009C1F000058
:1000C8003A270000A01F0000A21F0000A41F000084
:1000D800A61F0000A81F0000AA1F0000AC1F0000F8
:1000E800AE1F0000B01F0000B21F0000B41F0000C8
:1000F800B61F0000B81F0000BA1F0000BC1F000098
:10010800BE1F0000C01F0000C21F0000C41F000067
:10011800C61F0000C81F000042270000CC1F0000B7
:10012800CE1F0000D01F0000D21F000000000000FA
:080138000000000000000000BF
:10014000397101436EC619A0397141536AC866CA34
:1001500062CC5ECE19A0397101535AD056D252D416
:100160004ED64AD826DA22DC06DE3301614082828E
:1001700041114AC026C222C406C68282B24D410144
:10018000024D924C224CB24B4101024B924A224A00
:10019000B2494101024992442244B2404101828065
:1001A0003D432A876373C3029377F700BDEFADE544
:1001B000937606FF3D8ABA960CC34CC30CC74CC756
:1001C0004107E36BD7FE11E28280B306C3408A0683
:1001D0009702000096966780A6002307B700A30643
:1001E000B7002306B700A305B7002305B700A30493
:1001F000B7002304B700A303B7002303B700A3028B
:10020000B7002302B700A301B7002301B700A30082
:10021000B7002300B700828093F5F50F9396850011
:10022000D58D93960501D58D61B7939627009702DA
:10023000000096968682E78086FA9680C1171D8F09
:100240003E96E374C3F8A5B7EFF29FF2B70500201E
:100250009385051BEF00507335BFEFF27FF1938557
:100260008180EF0070723DB782808280EFF25FF094
:10027000938581610D45EF10F04C42054181B70730
:1002800000201387C7778567BA972396A78819B781
:10029000EFF21FEE0111B767004003A747C4420702
:1002A00041839387C1879AA39E2303D7418AF98FFD
:1002B00093F7072099CF37670040C1679387F7DF2F
:1002C0002322F7C4138701871C23850793F7F70FB1
:1002D0001CA383D7C18703D7418AF98FC207C1877F
:1002E00063CF070A83D7C18703D7418AF98F93F772
:1002F000074089CF37670040C1679387F7BF232244
:10030000F7C4B707002083A74712829783D7C18716
:1003100003D7418AF98F139727016358070037677E
:100320000040B967FD172322F7C483D7C18703D7DD
:10033000418AF98F139737016346070683D7C18730
:1003400003D7418AF98F13974701635E070083A79C
:100350008183BDC3EF00007B37670040BD67938793
:10036000F77F2322F7C483D7C18703D7418AF98F48
:1003700093F707109DC337670040C1679387F7EF76
:100380002322F7C4832787C413970701634A070210
:1003900023AA01861D45EF0070060561E5BBEF103D
:1003A000A03989B737670040BD67FD172322F7C41E
:1003B0000145EF00B00459B70945EF00300469BFAB
:1003C000938741879843050798C398438D47E3F384
:1003D000E7FCB767004083A707C4A18BC5FF37665A
:1003E0000040832706C4C207C18323ACF1861306ED
:1003F00006C08147C165FD1521451442ED8E139756
:1004000027001308010242972320D7FE8507110613
:10041000E395A7FE9387818798431367170098C3D6
:10042000944341677D17F98E376600402320D6C478
:100430009443F99A94C39C437D8F2320E6C4376785
:100440000040832747C493F70740E5DFB7660040C5
:10045000C1679387F7BF23A2F6C4938606C081477E
:1004600041667D16A1451397270008102A97032798
:1004700007FE718F98C285079106E396B7FE23AAFF
:10048000018609BF03A7018683A7C1856319F70009
:1004900083C7818593F7F70F014591E38280EFF2DF
:1004A0003FCD138401861C409384818698401A07AF
:1004B0009A07938501ACBA951385018C3E95EF2080
:1004C000E0789C4013971700938701CCBA978AA3D2
:1004D0001C40138797FF85073337E0003307E04060
:1004E000F98F138701861CC3184383A7C185630B4B
:1004F000F70283C7018193F7F70F85EB83A7818606
:10050000138797FF85073337E0003307E040F98F03
:10051000138781861CC3184383A7C1860545630FD3
:10052000F7028DB9238C0184E9B723880180938772
:10053000818698439C4393961700938701CCB69786
:100540001A079223938501ACBA9513051008EF1092
:10055000D01C0545EF10207A0545E1B705472382F9
:10056000E186C1B718219D476308F70403A7C18539
:1005700083A701866317F70083C7818593F7F70F79
:10058000B9E7EFF2FFBE2E86AA851384C1851C4011
:100590009A071385018C3E95EF5040621C408507F9
:1005A0001CC01840A147630DF70003A7C18583A7AE
:1005B0000186630AF700F9BE0547238EE18A82802F
:1005C00023AE0184DDB70547238CE184EDB782803B
:1005D000EFF21FBA39711306000481450A85C93646
:1005E0008A850545EF101016930500040A859D3F86
:1005F0008D650545EF100069216169BE03A7C186BD
:1006000083A781866317F70083C7418693F7F70FA7
:10061000A1CFEFF2FFB51384C18618401C4093961A
:100620001700938701CCB6971A079223938501ACE4
:10063000BA9513051008EF10500E0545EF10A06B8A
:100640001C4085071CC01840A1476309F70003A799
:10065000C18683A781866306F7002DBE23A6018687
:10066000FDB723820186D5BF05472388E1808280BC
:10067000EFF21FB0613739BE83C7A1CF81C71547DD
:1006800023A4E1888280114723A4E18882808280AC
:100690008280828091E5854733B5A7000605828078
:1006A0000945828001C513854184828083A78189A1
:1006B0001D479AAB828001C513854184828083A740
:1006C00081891D479AAB8280EFF29FAA03A7818997
:1006D0001C2393F7F70785466385D702930610021C
:1006E00009456399D7041C3313071002638AE70492
:1006F000130700026390E704370400001304646BDF
:1007000015A03C23930620026387D70293061002AC
:1007100009456391D702371400001304A4AC00CF3D
:100720000145029483A7818980CF23990700014561
:100730000294014585B4371400001304A4ABC5B777
:10074000370400001304446AF1BF83A781899833FA
:100750009C2393F7F7079306100201456383D700A4
:1007600082801307E7FD1377F70F05453335E50062
:100770000605FDB703A781891C2393F7F7079306A6
:1007800010026383D7008280183393070002E31CB2
:10079000F7FEEFF2FF9D13854184EF20202ADDBA9A
:1007A000EFF21F9D83A78189238507003D26B76748
:1007B0000040938707C005661306F6F0B766004051
:1007C000938606C29843718F98C39107E39CD7FE26
:1007D000B76700401307F00F23A2E7C4EF10E071E2
:1007E00023A4018881450145EF1070765145EF2023
:1007F000400285450545EF1090756FF0BF99EFF207
:100800003F9783A78189238507001967034777C727
:1008100098B7A38507000145EF10803E930500209F
:100820000145EF10E03E930500080145EF10805BA5
:10083000930500040145EF10E05C37040020130429
:1008400004128345C4020145EF1080618345C40250
:100850000145EF10C062C1450145EF10603D8D6557
:100860000145EF102042B767004083A707C01397E8
:10087000170163520702B766004083A706C0C2078C
:10088000C18305671307F7F0F98F3167130707086E
:10089000D98F23A0F6C0B767004083A707C093F79E
:1008A00007048DC3B766004083A706C0C207C18393
:1008B00005671307F7F0F98F21671307070CD98F26
:1008C00023A0F6C0930500600545EF106034930542
:1008D000000C0545EF100051930500100545EF1081
:1008E0006052930500040545EF10805793050004FE
:1008F0000545EF10C058930500020545EF10403341
:100900008D650545EF100038B767004083A747C0E5
:1009100093F707048DC3B766004083A746C0C2079C
:10092000C18305671307F7F0F98F21671307070CD9
:10093000D98F23A2F6C0B767004083A747C013979B
:10094000170163520702B766004083A746C0C2077B
:10095000C18305671307F7F0F98F3167130707089D
:10096000D98F23A2F6C0930500600945EF10402AF5
:10097000930500140945EF10E046A1450945EF1025
:10098000204E930500020945EF10802A8145094554
:10099000EF10402FB767004083A747C093F70704C5
:1009A0008DC3B766004083A746C0C207C1830567F1
:1009B0001307F7F0F98F21671307070CD98F23A2CC
:1009C000F6C081450D45EF10A024930500180D4594
:1009D000EF1040419305001C0D45EF10A042930518
:1009E00000040D45EF10C047930500040D45EF10BE
:1009F0000049930500020D45EF1080238D650D45DC
:100A0000EF104028B767004083A7C7C093F70704DB
:100A10008DC3B766004083A7C6C0C207C183056700
:100A20001307F7F0F98F21671307070CD98F23A657
:100A3000F6C0B767004083A7C7C01397170163527A
:100A40000702B766004083A7C6C0C207C183056717
:100A50001307F7F0F98F316713070708D98F23A61B
:100A6000F6C00145EF00303F054723A4E1886FF051
:100A70006FF2EFF2EFEF9385C181EF00E0706FF05E
:100A80006FF1EFF2EFEE93854181EF00E06F6FF0D1
:100A90006FF083A78189AC33914763EEB700EFF223
:100AA0002FED8E05B707002093870715BE95EF0041
:100AB000A06D6FF02FEE01458280EFF26FEB938512
:100AC0000183EF00606C6FF0EFECEFF26FEA93855B
:100AD0008182EF00606B6FF0EFEBB7670040054776
:100AE00023A0E7C423A007C423A207C409671307F0
:100AF00007C02392E18A0967130707C023A0E7C450
:100B00000145828037660040832506C4C205C18145
:100B1000130606C0814741687D18138501CDA148A1
:100B20001442B3F60601139727002A9714C38507CA
:100B30001106E39717FF13E70540B767004023A0AE
:100B4000E7C413E7154023A0E7C4F999C205C181A2
:100B500013E7054023A0E7C437670040832747C455
:100B600093F70740E5DFB7660040C1679387F7BF9B
:100B700023A2F6C4938606C08147138501CD416642
:100B80007D162148139727002A971843718F98C222
:100B900085079106E39807FF93E585403767004096
:100BA0002320B7C4832707C4C207C18393E7470044
:100BB0002320F7C40D4723A4E188828083C7A1CFF7
:100BC00089C7154723A4E1888280054723A4E188CB
:100BD0008280EFF2EFD937640040832704C4C20754
:100BE000C183ED9BC207C1832320F4C4C13FB16719
:100BF000938707F02320F4C46FF0CFD99D47630497
:100C0000F50023A0A18883A7018815476363F70C2B
:100C1000EFF20FD68A071967130747D6BA979C4396
:100C2000828783A7C18889C7154723A0E18829A89F
:100C30004D37194723A0E18801A8613F114723A040
:100C4000E188054723A6E1886FF0CFD49387018818
:100C50000947D8A30D4798C3C5BF93870188D823F8
:100C60007D171377F70FD8A3DC2393F7F70FE9FF6E
:100C7000114723A0E188C9BF37670040832707C415
:100C8000C207C18393E707012320F7C49387018834
:100C9000154798C32947D8A345BF93870188D82310
:100CA0007D171377F70FD8A3DC2393F7F70FC9FF4E
:100CB00037670040832707C4C207C183BD9BC207B3
:100CC000C1832320F7C4194723A0E18823A6018804
:100CD000A5BF194723A0E188828001CDEFF24FC95B
:100CE00083A7018A9C43829703A5818929056FF018
:100CF0006FCA83A7818905479AAB828001CDEFF245
:100D00002FC783A7018A9C47829703A58189310554
:100D10006FF04FC883A7818905479AAB828039C19C
:100D2000239A018803A781891C2393F7F707B1E76A
:100D30001C3713F7070201C78946238AD18893F726
:100D4000070495C79387418998231367170098A3D1
:100D5000EFF20FC283A7018A9C4B829713854189CA
:100D60006FF04FC383A7818909479AAB828093872D
:100D700041899823799B98A3E1BF8546638DD70469
:100D800089460145639CD70458339377F70062077F
:100D90006187634207028A0737670040130707C06D
:100DA000BA979C430D67F98F0567E393E7FA054708
:100DB000238AE18871BF8A0737670040130707C09D
:100DC000BA979C4393F707034147E393E7F8054736
:100DD000238AE188B5BF1385418982808280EFF242
:100DE0008FB783A48189822839E4982491476305C9
:100DF000F700DE281149A1A003A7018985476307F1
:100E0000F70041472394E18A1D49A5A8B767004030
:100E100083A707C5C207C183373700200907BA97E0
:100E2000860723A00700130700032394E18A23A861
:100E300001881149B9A0DE2863FB8704094963F3DF
:100E400087003E84420441809C4C22858297AA8977
:100E50000145EF00507D2286AA854E85EF00705631
:100E6000A2850145EF00D07F9E28818F9EA8BE28D5
:100E70003E94A2A8130700032394E18A0D672393ED
:100E8000E18A83A78189238427016FF00FB011497C
:100E90007DB783A78189B83383C65182094563E052
:100EA000E602B42389EED62399EAEFF26FACB8A735
:100EB00083A7018ADC43829701456FF0AFAD828042
:100EC000EFF20FAB83A7818903A7C189184FAC3319
:100ED000C833029783A78189B82709440DC32A84A0
:100EE00015E1D82315E3BC2395E383A7018ADC47EA
:100EF000829783A78189D833B8B7B833D8A722851A
:100F00006FF04FA90944E5BF0944D5BF0944C5BFE7
:100F100003A781891C2393F7F70791C789460945E1
:100F20006389D70082801C3793F7F7FD1CB7014512
:100F300082803E23E5FB5C23F5F75C3313F6F7F77D
:100F4000E207E18763CC070493162600B7650040EB
:100F5000938505C0AE9694428D65ED8E83C5418222
:100F60000945E371B6FCDDDE38274DDFEFF24FA017
:100F700063C1070413142600B7670040938707C0B6
:100F80003E941C400D67F98F0567638CE70483A7C7
:100F9000018ADC4B829701456FF0CF9F93162600A4
:100FA000B7650040938505C0AE96944293F606035C
:100FB00075B79317260037670040130707C0BA9725
:100FC0009C4393F707034147E393E7FC1374F60F41
:100FD0002285EF00505E930500032285EF00504507
:100FE0007DB731E6B707002083C5C7140145EF0080
:100FF00010691840F1779387F7F87D8F4207418396
:101000008D673D8FE177938707085D8F42074183A6
:1010100018C01C408D66F58FE38BD7F641667D16B0
:1010200018C01C40F18FF58FE39CD7FE8DB7328539
:10103000EF0070551840F1779387F7F87D8F4207DE
:1010400041838D673D8FE177938707085D8F420766
:10105000418318C01C408D66F58FE38AD7F2416644
:101060007D1618C01C40F18FF58FE39CD7FE05B7A5
:1010700003A6818958329377F7F762076187634740
:10108000070893962700B7650040938505C0AE9684
:1010900094428D65ED8E83C54182094563F6B70C98
:1010A0002E22F9E1F1C23426E1C2EFF26F8C634ADD
:1010B00007068A0737670040130707C0BA979443AB
:1010C00071771307F7F8F98EC206C1820567B98EEA
:1010D000617713070708D98EC206C18294C398436B
:1010E0000D66718F0566630CC70041667D160D6540
:1010F000856594C39843718F698FE31CB7FE83A7FE
:10110000018A9C4F829701456FF0CF889396270004
:10111000B7650040938505C0AE96944293F60603EA
:101120009DBF8A0737670040130707C0BA979443EB
:1011300065771307F7FBF98EC206C18293C60601D5
:10114000617713070708D98EC206C18294C39843FA
:10115000137707034146E304C7FA94C39843137710
:101160000703E31CC7FE61BF8280EFF26F8003A715
:1011700081891C3793E707021CB783A7018ADC4FDC
:10118000829701456FF00F8183A78189BA2B01C532
:1011900088413A958280CA21198D8AAB01458280A7
:1011A000EFE21FFDB707002083C5C7140145EF001C
:1011B000104D83A781898827A1476307F5005D1536
:1011C000133515006FE01FFD05672393E18A414742
:1011D0002394E18AEDB7EFE2BFF94111B767004010
:1011E00083A707C503A781891027A5466315D604E1
:1011F00083A78189054798A7FA23631907128033CB
:1012000098231377F70745EB2547630EE406154748
:10121000630FE4060D476308E40805476313E40A17
:10122000B4336390E60ADA2349EF9C3793F7070259
:10123000C9CBF93999A841649306F4FFF58F373685
:1012400000201106B29786078043758C0604B767A5
:1012500000403E941C201CA383A78189183098B3BA
:1012600003A981894A20EF0070482311A90003A92E
:1012700081890A24EF0090472312A9005A2483A7EA
:101280008189FAA3B5B7EFF0DFC039C51DA8838601
:101290003700214763C40606B423ADE2D623B9EE76
:1012A000BC279DCBA1A8B4330547639CE600DE2391
:1012B00089EB653DD9BF85476309F7048947630C0E
:1012C000F70483A7C189DC4B228582978D47254788
:1012D0006306F50221471DE1B767004083A707C5F4
:1012E000C207C183373700200907BA97860723A0B2
:1012F0000700130700032394E18A194783A7818914
:1013000098A7793D41016FE0FFE8AD47E31BF4FA90
:10131000EFF01FBB9DBF85476307F4008D47E312C5
:10132000F4FAB9339DB7EFF0BFBE85B7983399464D
:10133000630FD70463180712BA2311EBD843C176A1
:101340009386F60F758FB70602006300D70803A7D0
:10135000818983A7C1899C4B083382978D47630895
:10136000F51A83A78189962B41677D176386E6125C
:1013700009476303E51A6381061A03870700634080
:10138000071A0D4798A70D672393E18A9DBF9823FD
:101390001377F7074DFFBC230547638FE700094725
:1013A0006381E7023D476380E71C0D47E391E7FA5D
:1013B00083A7C189DC5321A083A7C189DC4FC1DB8E
:1013C00075A883A7C1899C53DDBF98231377F707BE
:1013D00001EBDE23ADFFB71700009387E7D179A8B3
:1013E00085466312D70203A7C189184F8145C833C8
:1013F000029731FD83A78189BC27B1DBB7170000B5
:101400009387E7D1A5A88946E313D7F4DC3393F695
:10141000F700139787016187634B07021397260034
:1014200037660040130606C0329718430D66718F69
:1014300003C64182E3FDC6F093F70707E39907F07F
:10144000E30707F0B71700009387E7D105A81397C4
:10145000260037660040130606C0329718431377FC
:101460000703F9B7A146631CD7029C2393F7F7073C
:10147000E39F07ECB71700009387A7CD03A78189E7
:10148000231907001CCF0145829783A78189962BDA
:1014900041677D17E391E6EE254798A79DB5A946DC
:1014A0006313D70498231377F7078546E311D7EA28
:1014B000B827E30E07E8BA23E31B07E8D843C17651
:1014C0009386F60F758FC166E313D7E803A7C1892A
:1014D000184F8145C8330297E31B05E6B717000094
:1014E0009387C7CF61BF942393F6060613060004C3
:1014F000E39FC6E493064003E31BD7E4D8339D473C
:10150000E317F7E4B70700009387A72585BF83A7F4
:101510008189254798A7F5B3214798A7DDB3FA231A
:101520003AC63246637CD60032479AAB03A7C189DC
:101530000347C702DAABEFF09F8AE1B3E3F8E6FEB8
:1015400003A7C1890347C70213160701418263F548
:10155000C60023A80188D9BFB3E6E602E1FA8546B2
:1015600023A8D188E1B7B70700009387872439B74C
:10157000EFE21FC003A4818918249307E7FF93F7C4
:10158000D70FA146F1C39307D7FF93F7D70F99CB96
:101590009D47A146631AF70A83A7C189DC47829752
:1015A000A1465DA01C4C8DCB0628C1C45A2863738C
:1015B0009700BA84C204C180268582972A891E2892
:1015C000858F1EA83E28A6973EA80145EF0070070C
:1015D0002686AA854A8539251E28A1CF0D67239323
:1015E000E18A81450145EF00B0071307000323940A
:1015F000E18A1E285A2863F2E70491C783A78189EC
:10160000154798A73DA883A78189194798A7B76769
:10161000004083A707C5C207C183373700200907E9
:10162000BA97860723A00700130700032394E18AD3
:1016300009A81A285E28E368F7FC83A781890D476B
:1016400098A783A78189942783A7818994A7EFF01E
:101650003FB56FE03FB403CE4182630F0E02814677
:1016600037630040130303C0C168FD180568130801
:10167000F8F0A1659385050813F6F60F13172600F9
:101680001A971C43B3F71701B3F70701D18FCD8F1A
:101690001CC38506E312DEFE13650508B76700402C
:1016A00023A6A7C48280EFE2BFAC83A681899826D7
:1016B0009307E7FF93F7D70F99CF1946A147631117
:1016C000C702983295476304F70283A7C1899C47F4
:1016D0008297A14731A0EFF08FF083A781899C27E3
:1016E00003A781891CA7EFF0BFAB6FE0BFAA9C22C4
:1016F00093F7F707F9FBA832B93F83A7018A9C53F8
:101700008297E1B78280EFE2BFA6938701CF23AC37
:10171000F188094798A7370700209306071223AEE0
:10172000D188B70700209387871723A0F18A8327E2
:10173000071282976FE01FA6EFE2FFA14111231766
:101740000100B7690040138409C0370A0020130A5A
:101750008A0EB70A0020938A4A10E1A01840420777
:1017600041839387618A9AA39A231377070323946B
:10177000E18A9A238D66758F9AA31C40256713070B
:10178000F7FBF98F1840B1669386F6F8758F896676
:10179000358F93C7070293960701C182D98F2166BF
:1017A00013060608D18F1CC01C4093F707031306CD
:1017B0000002638EC700E17793870708DD8EC206BB
:1017C000C18214C01C4093F70703E39CC7FE1C4072
:1017D0008D66F58F89666382D702E1779387070864
:1017E0005D8F42074183C166FD168D65096618C08D
:1017F0001C40F58FED8FE39CC7FE83D7C187C18B5B
:10180000D9C31C40C207C1837C873887856793870B
:101810000780F98F639F07163C87C207C18763CF94
:10182000072683A749C4139707014183239EE186B6
:1018300013970701635C071483D7C187BD8B238B84
:10184000F18889DF8A07A297984342074183788706
:10185000388742074187634807343C8793F7070876
:10186000E9D383C761898A07A2979843A5669386BF
:10187000F6F0758F98C383C76189FD178A07D297E1
:101880009C43829779BF37640040832704C0A564D6
:101890001387F4F0F98F2320F4C03135032704C0F7
:1018A0009384F4FB658F032604C0B1679387F7F830
:1018B0007D8E83D7618A9396370163D4060085674E
:1018C0003D8E83D7618A9396270163D4060089678A
:1018D0003D8E83D7818AC18B99C31347070183D774
:1018E000818A93F7070299C31347070293170701E9
:1018F000C183518FA16693860608558FB766004055
:1019000023A0E6C083A606C003D7818A420741838D
:1019100093F606036388E602E17593850508CD8F8B
:10192000B7660040938606C093950701C1818CC2BB
:1019300098429387818A9E23C207C1831377070346
:10194000E317F7FEB767004003A707C083D7618A94
:10195000C207C1838D66758F630AF702E1779387AB
:1019600007085D8EB7660040938606C04206418236
:10197000C165FD150D6590C29C421387618A1A23CB
:1019800042074183ED8FE98FE397E7FE41016FE066
:10199000CFFF37640040832704C005671307F7F8BB
:1019A000F98F2320F4C0EFF01F83832704C025673D
:1019B0001307F7FBF98F032604C031671307F7F805
:1019C000798E03D7618A9316370163D406000567C1
:1019D000398E03D7618A9316270163D406000967FD
:1019E000398E03D7818A418B19C393C7070103D767
:1019F000818A1377070219C393C7070293950701DA
:101A0000C181D18F216713070708D98F376700403D
:101A10002320F7C0032707C083D7818AC207C18369
:101A2000137707036307F702E17793870708DD8DD4
:101A3000B7660040938606C0C205C1818CC2984239
:101A40009387818A9E23C207C18313770703E31715
:101A5000F7FEB767004003A707C083D7618AC207B4
:101A6000C1838D66758FE303F7F2E17793870708EB
:101A70005D8EB7660040938606C042064182C1650E
:101A8000FD150D6590C29C421387618A1A23420797
:101A90004183ED8FE98FE397E7FECDBD37640040CA
:101AA000832704C005671307F7F8F98F2320F4C0D4
:101AB000EFF01FAC832704C025671307F7FBF98FEE
:101AC000032604C031671307F7F8798E03D7618ABC
:101AD0009316370163D406000567398E03D7618AF0
:101AE0009316270163D406000967398E03D7818ACC
:101AF000418B19C393C7070103D7818A1377070264
:101B000019C393C7070293950701C181D18F21673C
:101B100013070708D98F376700402320F7C0032732
:101B200007C083D7818AC207C1831377070363077E
:101B3000F702E17793870708DD8DB766004093864B
:101B400006C0C205C1818CC298429387818A9E23B8
:101B5000C207C18313770703E317F7FEB767004097
:101B600003A707C083D7618AC207C1838D66758FBB
:101B7000E30EF7E0E177938707085D8EB7660040D4
:101B8000938606C042064182C165FD150D6590C26F
:101B90009C421387618A1A2342074183ED8FE98FA4
:101BA000E397E7FEE5B3984385669386F6F8758F6D
:101BB00098C383C76189FD178A07D6979C4382978C
:101BC00069B905060586B7370020BE95860511CA96
:101BD0001C31A2071821D98F9EA1910509057D16F8
:101BE00065FA828005060586B7370020BE95860512
:101BF00019C69C411EA109057D1691057DFA8280BA
:101C0000619942054181B767004023A8A7C482803B
:101C10000A05B7670040938707C03E951C4165776A
:101C20001307F798F98FDD8DC205C1810CC1828041
:101C30000A05B7670040938707C03E951841E577CE
:101C40009387F7FB7D8F4207418393F7050199C383
:101C50001347070193F7050299C313470702E1777A
:101C6000938707085D8F4207418318C11C4193F792
:101C700007036388B70018C11C4193F70703E39C6F
:101C8000B7FE82800A05B7670040938707C03E957C
:101C90001841F1779387F7F87D8F42074183939737
:101CA000350163D4070085673D8F9397250163D481
:101CB000070089673D8FE177938707085D8F4207AB
:101CC000418318C11C418D66F58F638BB700C166D7
:101CD000FD160D6618C11C41F58FF18FE39CB7FE10
:101CE00082800A05B7670040938707C03E95084188
:101CF0001375050382800A05B7670040938707C004
:101D00003E951841E5779387F7FB7D8F4207418326
:101D100013470703E177938707085D8F42074183E5
:101D200018C11C4193F70703930600036388D7008B
:101D300018C11C4193F70703E39CD7FE82800A0574
:101D4000B7670040938707C03E951841F1779387A6
:101D5000F7F87D8F420741838D673D8FE177938749
:101D600007085D8F4207418318C11C418D66F58FBE
:101D7000638AD70041667D1618C11C41F18FF58F2B
:101D8000E39CD7FE82800A05B7670040938707C0AF
:101D90003E951C4113971701635E07001C41C20763
:101DA000C18305671307F7F0F98F31671307070839
:101DB000D98F1CC182800A05B7670040938707C08E
:101DC0003E951C4193F7070489CF1C41C207C1838C
:101DD00005671307F7F0F98F21671307070CD98FF1
:101DE0001CC18280B767004083A707C5C207C183B3
:101DF0000E053E95B73700203E9506058581860580
:101E00000CC18280B767004083A707C5C207C183A2
:101E10000E053E95B737002091073E950605858152
:101E200086050CC18280B767004083A707C5C2073B
:101E3000C1830E053E95B73700203E9506050A2161
:101E40008280B767004083A707C5C207C1830E051C
:101E50003E95B737002091073E9506050A218280FE
:101E6000B767004083A707C5C207C1830E053E952B
:101E7000B737002089073E9506050CC18280B767F9
:101E8000004083A707C5C207C1830E05AA9737354F
:101E900000201905AA9786071307E003637EB700A1
:101EA00013D75500FD8981E57D17420741832A0735
:101EB000A166558F98C3828013D715008589B335E5
:101EC000B0002E972A0798C38280B767004083A787
:101ED00007C5C207C1830E053E95B7370020990795
:101EE0003E95060508411375F53F8280935785009E
:101EF0001375F50F22055D8D828037670040232220
:101F000007C4F177938707F02392F18AB16793872B
:101F100007F02320F7C401458280EFE26FA52E89E8
:101F200032849374F5072685FD3D42044180228664
:101F3000AA854A85EFF0FFC8A28526851537014599
:101F40006FE04FA5EFE2CFA22E899374F5072685A7
:101F5000AD3F2A842685F5352286AA854A85EFF08D
:101F60007FC822856FE00FA301A001A001A001A0FE
:101F700001A001A001A001A001A001A001A001A059
:101F800001A001A001A001A001A001A001A001A049
:101F900001A001A001A001A001A001A001A001A039
:101FA00001A001A001A001A001A001A001A001A029
:101FB00001A001A001A001A001A001A001A001A019
:101FC00001A001A001A001A001A001A001A001A009
:101FD00001A001A097F1FF1F9381C19D171100205F
:101FE0001301418217450000130585E197E5FF1FA6
:101FF000938545011386818563FAC5008322050018
:1020000023A0550011059105E3EAC5FE13858185DE
:102010009385016A6377B500232005001105E36D00
:10202000B5FEFD42739002BC8D42739042809302D4
:10203000800873A0023097E2FFFF9382220093E2B0
:10204000320073905230EF004001971200009382EB
:10205000228C7390123473002030B71702409843DB
:102060001367170098C3D843B706FFF8758FD8C316
:102070009843B706F7FEFD16758F98C39843B706C9
:10208000FCFFFD16758F98C3D843B70681FFFD1678
:10209000758FD8C337079F0098C7B746024003A77C
:1020A00006801367070123A0E680D843D8C3D8432E
:1020B000D8C3D84313670740D8C3D843B706C1FF76
:1020C000FD16758FD8C3D843B7063C00558FD8C3CB
:1020D0009843B7060001558F98C39843931667003D
:1020E000E3DD06FEB7170240D843719BD8C3D8433F
:1020F00013672700D8C3B71602402147DC42B18BD3
:10210000E39EE7FE82801C4161773D077D8F9C4501
:102110009451D58F9449D58FD449D58F944DD58F6F
:10212000D44DD58FD451D58F9455D58FD98F1CC10F
:10213000DC455CC19C411CC5DC415CC5828091C50D
:102140001C4193E717001CC182801C41416779172D
:10215000F98F1CC182804CC1828048414205418177
:1021600082805C45D9C3B70601409387064003A629
:10217000064018411347F7FF718F23A0E64083A65E
:10218000464018411347F7FF758FD8C358413E9713
:1021900014431041D18E14C3944718411347F7FFDD
:1021A000758F98C7D44718411347F7FF758FD8C765
:1021B0001C454147638CE700370701401307074080
:1021C000BA9798431441558F98C38280B70701404E
:1021D00003A787401441558F23A4E74003A7C740B6
:1021E0001441558F23A6E74082805841B70701402C
:1021F000938707403E9714431C4193C7F7FFF58F21
:102200001CC38280B707014023AAA74082809C4557
:1022100093F8F700C18B81C7DC41B3E8F800B7271A
:102220000240985BB707000FF98F89EF05472385B8
:10223000E18AB7170140631BF5009E21B5839EA17B
:1022400081EB8280B7170140630EF5009C21A1CF7E
:1022500010418147054E3D4F930E8002930F80043D
:10226000214309A883C7A18AF5D3C1BF54C98507F3
:10227000638A6702B316FE009A21758FE399E6FE22
:10228000139727003318EF001348F8FF3376C80080
:102290003397E800598E9845E30AD7FDE319F7FD17
:1022A00014C9F1B710C19A219307F00F63FCE7043A
:1022B0005041A147054EBD4F130F8002930E80047D
:1022C000414331A054C90DA88507638C6702B3163A
:1022D000FE009A21758FE399E6FE139727000117F8
:1022E0003398EF001348F8FF3376C8003397E800BF
:1022F000598E9845E308E7FD9845E317D7FD14C9C3
:10230000E1B750C18280B71701406304F5000CC9E2
:10231000828083C7A18AE5DFB581D5BF83A7C18A43
:1023200085EF14213C21920793F7F70F37E700E080
:1023300036972300F7405C416382071218219357B8
:1023400057008546B396E600938707048A0737E768
:1023500000E0BA9794C3828003A7C18A8547630CC3
:10236000F70203A7C18A89476302F70603A7C18A58
:102370008D476301F70A03A7C18A9147E31DF7FA66
:1023800014211C31920793F7F70F37E700E03697D7
:102390002300F7404DB71831630DF70014213C219D
:1023A000920793F7F70F37E700E036972300F740DF
:1023B00059B714213C21920793E707F893F7F70FD9
:1023C00037E700E036972300F740B5B71C310547E3
:1023D0006375F70214219387E7038A073821BA97B8
:1023E00093F7F70F920793E707F893F7F70F37E79D
:1023F00000E036972300F7403DBF14218A073821BB
:10240000BA97920793F7F70F37E700E03697230064
:10241000F74015B71C310D47636FF700142186078D
:102420003821BA97920793F7F70F37E700E036970E
:102430002300F74009B714219387C707860738217F
:10244000BA9793F7F70F920793E707F893F7F70F09
:1024500037E700E036972300F740F1BD1821935786
:1024600057008546B396E600938707068A0737E745
:1024700000E0BA9794C38280B7170240D843B706EA
:1024800040FFFD16758FD8C3D8435A05598DC8C370
:102490008280B7170240DC43B18B1147638EE70699
:1024A00021476381E70899C7B7177A009387072008
:1024B0001CC131A0B7177A00938707201CC13716BB
:1024C00002405C429183BD8B370700201307C71978
:1024D000BA9794231C41B3D7D7005CC15442A18260
:1024E0009D8ABA969422B3D6D70014C55442AD82C1
:1024F0009D8A36971823B3D7E7005CC558423983C5
:102500009376370013870184369718231377F70FD4
:10251000B3D7E7021CC98280B7177A0093870720D8
:102520001CC171BF371702405C435843C166758FA9
:10253000C983BD8B8907C5466381D7020DEB374739
:10254000024003270780418B19CB37177A00130706
:102550000720B387E7021CC19DB7C947C5B7371726
:102560003D0013070790B387E7021CC189BF3717E7
:10257000024058439316E70063DA060037173D0020
:1025800013070790B387E7021CC115BF37177A00FE
:1025900013070720B387E7021CC115B799C5371782
:1025A00002405C4B5D8D48CB8280B7170240D84B10
:1025B0001345F5FF798DC8CB828099C53717024046
:1025C0001C4F5D8D08CF8280B7170240984F13458E
:1025D000F5FF798D88CF828099C5371702405C4F0F
:1025E0005D8D48CF8280B7170240D84F1345F5FF65
:1025F000798DC8CF8280EFD2BFB701112A84AE8413
:102600001A29F577FD17F98FFA21D98F1EA95A25B6
:10261000FD779387379FF98FDA21D98F9A25D98F44
:10262000BA25D98F5EA55E29C207C18393F7F7CF7C
:10263000DA25D98F5EA96800EFF0BFE5B747014002
:1026400093870780630CF40452475E24C207C18756
:1026500063C8070493171700BA978E07BA97984074
:102660000A07B3D7E70213074006B3D6E70292067C
:10267000B3F7E7025A2442074187634D07029207E6
:102680009387270313074006B3D7E702BD8BD58F87
:10269000C207C1831EA405616FD0DFAF624775B763
:1026A00093171700BA978E07BA9798400607B3D7C3
:1026B000E70255BF13973700130727039307400618
:1026C0003357F7021D8BB367D700D9B791C55E2585
:1026D0000967D98F5EA582805A25F977FD17F98F92
:1026E0005EA5828009C65E29DD8D4EA982805E29A5
:1026F00093C5F5FFFD8D4EA98280B7F700E023A0BA
:10270000070023A207008146014794C7D8C7814626
:1027100088CBD4CB3D4798C3B7E700E0056723A03B
:10272000E7108280B7F700E023A207009387018BB0
:102730009843050798C373002030EFD07FB573002E
:10274000203037050400EFF0FFAB73002030EFD2EC
:102750003FA2AA842E8485451145EFF01FE6B1CC37
:10276000B766004083A706C441677517F98F23A099
:10277000F6C4B717014003A74780B716F0FFFD1650
:10278000758F23A2E78003A7C780F9769386F67F2B
:10279000758F23A6E78003A74780B7460400558FAF
:1027A00023A2E78039CC374702408327078093E78D
:1027B00027002320F7806FD0FF9D376700408327D5
:1027C00007C493E72700C207C1832320F7C4B717C4
:1027D000014003A74780B716F0FFFD16758F23A2AF
:1027E000E78003A7C780F9769386F67F758F23A6C7
:1027F000E78003A74780B7360300558F23A2E78001
:1028000055B73747024083270780F59B2320F78081
:102810005DB783A7C1830567130707FAB3D7E7023C
:10282000B387A70299CF01478566938606FA010010
:10283000050783A7C183B3D7D702B387A702E3688D
:10284000F7FE82801DC6AE870606B295A54611A882
:102850001307770398A3A380070012058907638AEB
:10286000B7001357C501E3E5E6FE1307070398A376
:10287000DDB78280EFD2DF8F01110945EFF0DFBFB6
:10288000854537058000EFF03FD5B7F7FF1F83A4DC
:10289000C77E03A4077F03A5877E2146B7050020D6
:1028A0009385E50C2295793F1146B7050020938565
:1028B000E50D338584007937EFE0FFE493074002AC
:1028C000230CF1008547A30CF100230D0100054402
:1028D00022CE2808EFF09FA437050400EFF09F9266
:1028E000B70704003EC402C6C1473EC822CA28003A
:1028F000EFF03F879307A003230CF100A30C010026
:102900002808EFF0BFA105616FD0DF88EFD25F86A6
:10291000EF1080793128B93F03A5C1839307803E2A
:102920003355F502EFF07FDDEFD0DFB57D2AEDBF47
:10293000EFD27F825D7185451145EFF01FC8854557
:1029400037050200EFF05FC985450545EFF01FC56B
:1029500091472312F104E147BEC68D47BEC4CC00A7
:102960003714014013050480EFF07F8AA14723123A
:10297000F10493078004BEC6CC0013050480EFF079
:102980001F89C1473EC837440040130A444052C41F
:1029900002CC9387C1D83EC6130900084ACE02D0A4
:1029A00002D202CA89694ED602D402D82C00B704DA
:1029B000024013850408EFF00FF5854513850408E0
:1029C000EFF0EFF702C852C402CC9387C1D03EC6E5
:1029D0004ACE02D002D24ACA4ED6930700023ED453
:1029E00002D82C001385C406EFF0EFF1854513855E
:1029F000C406EFF0CFF4F167938707203EDA231C7B
:102A00000102231D0102231E0102B147231FF1020F
:102A1000231001044C1813050440EFF0DFBD0546F8
:102A20009305000C13050440EFF0DFCB854513053B
:102A30000440EFF0BFC961616FD02FF5EFD24FF3C3
:102A40004111231201005C310547638CE7021397A3
:102A50008701618719C70947638BE70223140100C7
:102A600019A0231401005C210547638AE706139728
:102A7000870161871DC309476386E70623130100A9
:102A800039A8930700607C8485677C82E9BF93073F
:102A900000407C8485677C82F9B7231301001C21E8
:102AA000183122075D8F3C21C2075D8F3C31E20760
:102AB000D98F3EC0B1477C8523160100196473107D
:102AC00004808A853745004013050540EFF0BFB20A
:102AD000130484087310048041016FD0AFEB8D673D
:102AE0007C8375BF89677C835DBFEFD26FE80D453E
:102AF000EFF02F9F930700026300F502B707002055
:102B00001387C7778567BA9783D7C788C207C183FA
:102B10006390070E6FD00FE8370502401305C50616
:102B2000EFF0AFE313040008098C83A7818BB30691
:102B3000F4401307F003636FD700638B870683A607
:102B4000018B03A7418B6385E606637FF4001304C2
:102B5000000819A0636BF4043307F44093060004E3
:102B600063F4E60013840704B306F440C206C1828E
:102B7000370700201306C777056732972315D784D8
:102B80000356A7849385C1D0BE9513053008EFF096
:102B9000CFB80D45EFF02F961374F40723AC818A5C
:102BA00003A7018B23AAE18A91BF130400086DB724
:102BB000B70700201387C7778567BA9783D7A7849D
:102BC000C207C18313070004E39AE7F2B7070020A6
:102BD0001387C7778567BA97239507840146814590
:102BE00013053008EFF06FB30D45EFF0CF9039B714
:102BF0003705024013050508EFF02FD6E31C05F05A
:102C0000370400209307C47705643E940356C488B4
:102C1000938581611385C1D8EF20507A8145B7042F
:102C2000024013850408EFF08FD18355C4881385C3
:102C30000408EFF04FD2854513850408EFF02FD03C
:102C4000231604880D45EFF08F8FE9B5EFD24FCFF3
:102C500079712A892E841C2193C607087D476371E8
:102C6000D702938C15009CA175476374F7006F1011
:102C700080348A0719671307C7D7BA979C4382879E
:102C8000EF10805149AC1C311307000F6389E7082E
:102C90006377F7021307E00F6381E70A6368F708B9
:102CA0001307100F01456396E7062381050085573A
:102CB000BCB1D557DCA19547DCB1114599A81147A6
:102CC000638AE702254701456395E70413872500DA
:102CD000B767000003C847DF938747DF8833AC231B
:102CE000B033D4232301040108B32CA330B354A37D
:102CF000154505A09387018588238C33B023B43311
:102D0000D823DC3328A02CB050A054B078A07CB0DD
:102D1000194508B0B707020089073E95EDAA930749
:102D20003003BCA1A38105000945E5B79307000462
:102D3000BCA1A38105000945E9BFA147BCA1054588
:102D4000C9BF1C3191CB0547638EE702FD579CB18B
:102D50003705020005056DAA3C21858B89CFB71781
:102D600001401307000223A8E780A30004003705F1
:102D70000200050571AAB71701401307000223AA34
:102D8000E780E5B73C21858B81CBB717014013075E
:102D9000000223A8E780D1BFB71701401307000244
:102DA00023AAE780D9B71C3189CB05476387E700A1
:102DB0000947638CE7048147A9A00547238EE16496
:102DC0008945B714014013850480EFF0CFD38545C2
:102DD00013850480EFF02FD389472312F102C147F6
:102DE0003ED68D473ED44C1013850480EFF02FC2A1
:102DF00085472312F1024C1013850480EFF02FC198
:102E000085471CB04165050521A20947238EE16471
:102E10008945B714014013850480EFF0CFCE854576
:102E200013850480EFF02FCE9305000813850480EE
:102E3000EFF06FCD89472312F102C1473ED68D478F
:102E40003ED44C1013850480EFF06FBC85472312ED
:102E5000F1024C1013850480EFF06FBB930700085C
:102E60002312F1024C1013850480EFF04FBA930740
:102E700000042312F102930780043ED64C10138500
:102E80000480EFF0CFB88947ADBF238E016485453C
:102E90001145EFF08FF285452145EFF00FF289499A
:102EA0002312310391473ED68D473ED44C10B714C0
:102EB000014013850480EFF08FB5054923122103EB
:102EC0004C1013850480EFF08FB4231231034C10A3
:102ED00013850480EFF0AFB3231221034C10138548
:102EE0000480EFF0CFB2930700082312F1024C10D8
:102EF00013850480EFF0AFB1930700042312F102B1
:102F00004C1013850480EFF08FB0A300040005453A
:102F1000C1648504269545616FD04FA63C21A20768
:102F200018315D8F93171700BA979207FD17FDFFB1
:102F3000A3000400370502000505D9BF2381050061
:102F4000A38005000945E9B71431368503472900F8
:102F500083474900A207034659004206D18F034622
:102F60003900D18F034669006206D18F13761700AE
:102F700009CA93F51600E5C5B7150140094823A80D
:102F8000058113782700630A080093F52600F1CD28
:102F9000B7150140854823A8158193784700638CB5
:102FA000080093D526008589F9C5B715014013039C
:102FB000000823A8658013138701135383416343DB
:102FC000030CA9CF13DE160093DE260013DF560094
:102FD0009D82B71501401377070219C683A7858024
:102FE0008583858BE31BF5FE6307080083A7858037
:102FF000858BE314FEFE6388080083A785809D838C
:10300000858BE39CFEFC19C3E3190FFC6358030096
:1030100083A785809183858BE391F6FC3717014068
:103020000326878083278780832587808326878060
:10303000130707801847858B860795819189CD8F67
:103040000582058AD18F8D82A18AD58F0E071377CD
:103050000708D98F1CB037050600050555BDB71503
:103060000140094823AA058129BFB71501408548B9
:1030700023AA15811DB7B71501401303000823AA21
:10308000658015BF93D5760099C5B7150140414EAF
:1030900023A8C5813DB7B7150140414E23AAC5817C
:1030A0000DB73C21A20738314207D98F1831D98F8B
:1030B00058216207D98F9DC3375725021307F70F91
:1030C0006374F7029387C165054798B30547D8C372
:1030D000A30004003705040005051DBDFD579CB184
:1030E0003705040005052DB5A38E016437A74A04F2
:1030F0001307F71F3E97B357F7028946054763F555
:10310000F6000D4733D7E70223A0E166D1B7930558
:103110002500043199E0930400102685EF20400437
:10312000A3000400138574000D8105054205136595
:103130001500F9BB1C311387C16593F6370085066E
:1031400014AF8983858B1CBFA380050041650505ED
:10315000C1B3938A2500A380050093072500034986
:103160001500854C0544FD5B130C0004B7190140A4
:10317000054B1DA823A8698183A70980C19B93E7FC
:10318000870023A0F9805686D285EF20E0026314E1
:1031900009006F0010700504A69AA69CD28729A08A
:1031A000B3079A00050426947D19630A7905138AEA
:1031B000170088239377F50391E3E2879D0793D463
:1031C000370093178501E187E3C607FA23AA6981CF
:1031D00083A70980C19B93E7370023A0F980568617
:1031E000D285EF10707DE31D09FA23AA698183A7B8
:1031F0000980C19B93E7370023A0F98055B71315C9
:1032000004013365950129B3138A2500A3800500C5
:103210009307250083491500854C0544FD5A130B7F
:10322000000415A09D048D805286DE854A85EF003E
:103230005077B3879B00138714003A94620913599F
:103240008941634E0900FD19638E5901938B170064
:1032500003C907009374F903F1F4DA84E1B7269AFD
:10326000A69CD5B7131504013365950155B1130616
:1032700025001C31238BF166A9C31385C165710537
:103280009386C165138727003A999385C1650147E5
:1032900005060348F6FF23000501DAB1429705054C
:1032A0008905E31726FF3385D7003686CC2E0D8F90
:1032B0005ABA85060906E39BA6FEA30004001385FF
:1032C0001700420513651500A1B103C7C165894701
:1032D0006319F70018319387C165B8BFBC2F6367C6
:1032E000F700FD571CB0416505051DB13945EF10CC
:1032F0000036EF007079A300040028A093578500E2
:103300003CB0935705015CA0618148B0416515054B
:1033100001B118319387C165D8A73831220734210C
:10332000558F9AAB583122075421558FBAABA380E1
:103330000500370505000505E1BE930715003ECEE3
:1033400003C7C1653AC885476305F7028947630724
:10335000F746930735003421E3970606A3000400DF
:103360002301040072473385E740420513652500B9
:1033700045B6138D3500238E018A130A3500034CA0
:103380002500630A0C4202CC014502C6014B938A18
:10339000C16589493E8985AC4C102245EF10106FFC
:1033A000631E3501E3870B429387C18B9C2393F700
:1033B000F70FFD1BF5D36F00D041014B8547E3109C
:1033C000F54C92572300FD0013D78700A300ED00B2
:1033D00013D707012301ED0013074D00E183A3017B
:1033E000FD00630C0B0293978401E18763C507001E
:1033F0005A853A8D25A083A78A002302FD0013D7A2
:103400008700A302ED0013D707012303ED00E1833A
:10341000A303FD005A85210D11A03A8D93F70401F5
:10342000C5CB834B2A00A20B83473A00C207B3EBFC
:10343000FB0083471A00B3EBFB0083474A00E20717
:10344000B3EBFB0093075A003ECA03DA2A018588D2
:103450009DC483D40A0181452245EF103063631D6A
:103460003501E38E04409387C18B9C2393F7F70FBC
:10347000FD14F5D36F00B0408547E312F540854D4C
:103480001DA0E313B54183A74A011257F98F638545
:10349000FB26E3010A3E9387C18B9C2393F7F70F2A
:1034A0007D1AE399073C83D40A014C102245EF10A2
:1034B000F05DE31835FDE387043A9387C18B9C23C5
:1034C00093F7F70FFD14F5D389473EC86F00D03945
:1034D00003DA0A0193F71400B5C763050B00524ADB
:1034E00002CC29A281452245EF10505A631D3501B7
:1034F000E3090A2C9387C18B9C2393F7F70F7D1A5E
:10350000F5D36F00D0378547E31BF536E204E1843D
:1035100063C604005ACC2A8B524AC9A883A78A00E2
:103520002300FD0013D78700A300ED0013D7070188
:103530002301ED00E183A301FD005ACC2A8B110D7C
:10354000524A6DA04C102245EF105054631D3501B6
:10355000E3070A329387C18B9C2393F7F70F7D1AF9
:10356000F5D36F00D0318547E31BF530E204E184E9
:1035700063C4040292572300FD0013D78700A30001
:10358000ED0013D707012301ED00E183A301FD0046
:10359000110D524A02CC99A883A78A002300FD008E
:1035A00013D78700A300ED0013D707012301ED0017
:1035B000E183A301FD00110D75BF631A0B0883475A
:1035C0002A00A20703473A004207D98F03471A008F
:1035D000D98F03474A006207D98F3ED2150A13F7E5
:1035E000040245CF23AAFA00014B0545B2478507DF
:1035F0003EC69387C18B9C2393F7F70F6390071206
:103600007D1C630F0C1093071A003ECA83440A0006
:1036100026C493F72400D5D3E3020BE083DB0A0131
:1036200093F714010547E389E7D64C103945EF10AD
:10363000F045E31435D9E38D0B189387C18B9C2398
:1036400093F7F70FFD1BF5D3014B6F00901883DB49
:103650000A014C103945EF107043631D3501E380BA
:103660000B229387C18B9C2393F7F70FFD1BF5D398
:103670006F00F0208547E314F52092572300FD00EA
:1036800013D78700A300ED0013D707012301ED0036
:10369000E183A301FD00110D1DB703DB0A014C10EE
:1036A0002245EF10B03E631F3501E30E0B109387E8
:1036B000C18B9C2393F7F70F7D1BF5D352CA014BA7
:1036C0006F00F01B8547E312F510E204E1842ACC79
:1036D000014BE3DD04F083A78A002300FD0013D72C
:1036E0008700A300ED0013D707012301ED00E1835C
:1036F000A301FD00110DDDBD524A02CCC5BD150A66
:1037000011A0150A7D1C630D0C0083470A0013F7F6
:10371000270065DBC18BE5F7050AEDB7E3170CFE63
:103720008547630FF500B2471CB028A0F247330568
:10373000FA404205B30C9D41336595016FF04FFD92
:1037400063070B0483D4C16609494C103945EF1057
:10375000F033631B2501E1D89387C18B9C2393F73A
:10376000F70FFD14FDD3C1B78547E31EF5FA925755
:103770002300FD0013D78700A300ED0013D7070136
:103780002301ED00E183A301FD00110D69BFE247B4
:10379000D9DB83D4C166094981453945EF10102F23
:1037A000E31325F9C9D09387C18B9C2393F7F70FB7
:1037B000FD14FDD38DBF62C66285B5B7938D35000C
:1037C000238E018A18319387C165B8BFBC2F637EF1
:1037D000F73C93043500834B2500638D0B3C02C6F8
:1037E00002CA014A138DC1658949D9AAA94752471E
:1037F0006316F7024C103945EF102021631435038E
:10380000E38B0A049387C18B9C2393F7F70FFD1A70
:10381000F5D3A9473ECA814A6F0030042945EF001D
:103820001063C9BFA9473ECA014A85476315F57AA7
:1038300092572380FD0013D78700A380ED0013D794
:1038400007012381ED0013874D00E183A381FD0073
:1038500063020A7A93178B01E18763C90700BA8D67
:10386000137B0B01631E0B78E24435AA83278D007E
:103870002382FD0013D78700A382ED0013D7070131
:103880002383ED00E183A383FD00A10DD1BF6285F9
:10389000EF00F05B6F00807985476305F502B1A802
:1038A00005476315E57E83274D011257F98F63079E
:1038B000FB22638C0A049387C18B9C2393F7F70F39
:1038C000FD1AA9E383540D014C102245EF10E013BB
:1038D000E31835FD81C89387C18B9C2393F7F70FBD
:1038E000FD14FDD383A701671257F98F6387670122
:1038F000C24713E507011375F50F62CAE2446398E6
:103900000B1E2DAC85473EC8E5B785473EC8CDB7F1
:10391000D2476396870383540D0181452245EF10FA
:10392000C00E2A8A631135036389046A9387C18BA9
:103930009C2393F7F70FFD14EDD3014A7DBF6285F9
:10394000EF00F050C9BF8547631BF568620B135B3E
:103950008B4162CAE246B68463570B0483278D000D
:103960002380FD0013D78700A380ED0013D7070144
:103970002381ED00E183A381FD00910D2DA063194A
:103980000A08BC20A207B8304207D98F9830D98FD7
:10399000D8206207D98F3ED2950413770B0269CBEA
:1039A000232AFD00014AB24785073EC69387C18B93
:1039B0009C2393F7F70F63940714FD1B63840B1488
:1039C000938714003ECC03CB04005AC4137C1B0025
:1039D000290C93772B00C5D7630F0A60835A0D011A
:1039E000D247E39587E193770B01E39107E04C1011
:1039F0002245EF108001E31A35E3638C0A64938754
:103A0000C18B9C2393F7F70FFD1AF5D3D28AB1A58A
:103A1000A94752476315F702835A0D014C103945E7
:103A2000EF00B07E63113503638D0A5A9387C18B13
:103A30009C2393F7F70FFD1AF5D3294C7DBD29453B
:103A4000EF00F040D1BF8547631FF55892572380A0
:103A5000FD0013D78700A380ED0013D70701238152
:103A6000ED00E183A381FD00910DA9473ECA11BF7E
:103A7000D2476316FC02035A0D014C102245EF0099
:103A8000D0786312350363020A569387C18B9C2357
:103A900093F7F70F7D1AF5D326CC014AB9BD62859D
:103AA000EF00F03AC9BF85476313F554620B135B0F
:103AB0008B4162CA014AE3580BEE83278D002380B5
:103AC000FD0013D78700A380ED0013D707012381E2
:103AD000ED00E183A381FD00910DF1B562CAE244DE
:103AE000D9B5950411A09504FD1B63860B049C2099
:103AF00013F727006DDBC18BEDF78504F5B705459E
:103B0000E3970BFEA94752476317F704630C0A06B5
:103B100003D9C16689494C103945EF00106F631015
:103B20003505630D09009387C18B9C2393F7F70F2D
:103B30007D19F5D321A08547E306F5FCB2471CB0FB
:103B400028A0F2473385F4404205B38C9D4133658C
:103B500095016FF0EFBB2945EF00702F45BF8547FA
:103B6000E31EF5FC92572380FD0013D78700A38046
:103B7000ED0013D707012381ED00E183A381FD0050
:103B8000910D6DBF03D9C166894981453945EF0063
:103B9000D067E31535FBE30309FA9387C18B9C23B8
:103BA00093F7F70F7D19F5D351BF93042500014515
:103BB00002C669B75E855EC651B7950711A0950725
:103BC000FD16638D06F89823137627006DDA418B76
:103BD0006DF78507F5B783C7C1650547638DE700B6
:103BE0000947638CE716A380050023810500A381A4
:103BF00005000D454DAC93844500238E018A034C8E
:103C00003500220C3C21336CFC00630F0C125C214C
:103C10003E8A13F7270001EB130D5500814B938D5E
:103C2000C165894A5DA0858B85CB83DBC1668949E7
:103C300081455285EF108065631D350163880B0C4B
:103C40009387C18B9C2393F7F70FFD1BF5D3814B13
:103C500075A88547631DF50E7D1C814B138DC165CD
:103C6000894A854D0DA893771A0085CB394A35A02E
:103C7000631EB50992579CA013D7870098B013D73D
:103C80000701B8A09104E183A38FF4FE850B7D1C8E
:103C9000FD57630DFC06E3080CFC83590D014C1025
:103CA0005285EF10A05EE31555FD638109069387E9
:103CB000C18B9C2393F7F70FFD19F5D381A8854796
:103CC0006316F504850B630D7C0583471D00A20771
:103CD00003472D004207D98F03470D00D98F0347B3
:103CE0003D006207D98F3ED2110D83D90D014C10D2
:103CF0005285EF10A059E31455FD6389090093879D
:103D0000C18B9C2393F7F70FFD19F5D3A300740122
:103D100093DB8B002301740128B03385944161A2A9
:103D200083D9C166094A81453945EF10205663128F
:103D30004503638209029387C18B9C2393F7F70F96
:103D4000FD19F5D3E28BD9B76285E28BC1B7814B00
:103D500075BFE28B65BFE28B55BF93844500238E10
:103D6000018A18319387C165B8BFBC2F6372F718F9
:103D7000034D3500220D3C21336DFD00630D0D1602
:103D8000834945004E8A93F71900A9073EC43E8532
:103D9000EF00F00B93F9290063990900130C590007
:103DA000014B938DC165894A6DA003DBC1668949CA
:103DB00081455285EF007045631D3501630C0B0C86
:103DC0009387C18B9C2393F7F70F7D1BF5D3014B92
:103DD000D1A085476314F5127D1D014B138CC1657D
:103DE000894A854D2DA8394AA2472947638BE702A6
:103DF0002945EF00D00535A0631EB50992579CA058
:103E000013D7870098B013D70701B8A09104E183B6
:103E1000A38FF4FE050B7D1DFD57630DFD06E30426
:103E20000DFC83590C014C105285EF00103EE31538
:103E300055FD638109069387C18B9C2393F7F70F88
:103E4000FD19F5D381A885476316F504050B6305B5
:103E50006D0783471C00A20703472C004207D98F38
:103E600003470C00D98F03473C006207D98F3ED22D
:103E7000110C83D90D014C105285EF001039E31459
:103E800055FD638909009387C18B9C2393F7F70F36
:103E9000FD19F5D3A3006401135B8B0023016401BA
:103EA00028B03385944183474900898BB1CFB7044B
:103EB0000400458D6FF0CF85A94722476316F702AE
:103EC00083D9C166094A81453945EF001034631929
:103ED0004503638909029387C18B9C2393F7F70FEE
:103EE000FD19F5D36A8B7DB72945EF004076C9BF30
:103EF0000145014B45B76A856A8B69BF014B59BFC4
:103F00006A8B49BF6A8B79B783443900A20483471F
:103F10002900DD8C8504CA04458D6FE07FFF83C7CF
:103F2000C1650547638CE7000947638FE702FD57CA
:103F30009CB13705050005056FE09FFD3C31A207E8
:103F400058214207D98F3821D98F58316207D98F2C
:103F50003ED24C100145EF106033A300040037053A
:103F6000050005056FE0DFFA18319387C165B8BF1A
:103F7000BC2F6369F700FD579CB1370505000505A7
:103F80006FE01FF92145EF00806C83473900A207DD
:103F9000034749004207D98F03472900D98F0345BA
:103FA000590062055D8D0529A30004003705050051
:103FB00005056FE0FFF5FD571CA0416505056FE0A5
:103FC0009FF5528B6DA852CA5DA852CA014B45A8F5
:103FD0005E8B09456DA0524C0DB2268A39BA014A52
:103FE00029BA294C19BA294C09BA26CC39B226CC9F
:103FF000014A21B2BA8D93770B01014AE38A0790F7
:1040000003CB2400220BBC30C207336BFB009C3077
:10401000336BFB00DC20E207336BFB00938754001B
:104020003ECC835A2D01D247E313FC8683540D0105
:1040300081452245EF00701DE3103587E38F048A28
:104040009387C18B9C2393F7F70FFD14F5D36FF083
:10405000DF8AD28A19A0A9473ECA524C568A09451E
:104060006FF0BF8989473EC883A701671257F98F50
:104070006387FB00C24713E507011375F50F524A2A
:1040800063150CE86FF02FEA2AC8F9BF2AC86FF051
:104090007F8523AA698183A70980C19B93E73700A5
:1040A00023A0F9806FF02F8FEFC2EF8A4111938721
:1040B000C16523800700A3800700C144C4C32386D1
:1040C0000700130740069AAB2399070023AA0700AD
:1040D000054798AFA38C0700238D07008545114540
:1040E000EFE0AFCD85452145EFE02FCD094A231202
:1040F000410191473EC68D494EC44C0037140140E2
:1041000013050480EFE0AF900549231221014C0014
:1041100013050480EFE0AF8F231241014C0013051B
:104120000480EFE0CF8E231221014C0013050480A0
:10413000EFE0EF8D930700087C824C0013050480AC
:10414000EFE0EF8C930700047C824C0013050480A1
:10415000EFE0EF8B130900022312210126C64EC4A3
:104160004C0013050480EFE08F8A231221014C00DC
:1041700013050480EFE0AF89C14513050480EFE02B
:104180008F986482D1473EC64C0013050480EFE04F
:104190000F8841016FB07FFF1C219CA1416505057F
:1041A00082801373F50363140300130300049377F1
:1041B00005048DCFB7170140054723A8E7806304A6
:1041C000030C411122C626C44AC24EC0937305088F
:1041D0008149A1441384C165371801401308088040
:1041E00093020008094FFA8F1D4995A0B7170140A7
:1041F000054723AAE780E1B7232A5800232AF801BC
:10420000F287FD17FDFF83278800998313F71700B6
:104210002328E801F287FD17FDFF93D818000581D8
:10422000931777005D8DB307D300FD166389D60120
:104230009DCE93F71800E9D323285800C1B77683A1
:104240006385030008A276830506630803028505DB
:1042500083C8F5FF630B0300032E4400930E83FF16
:104260009A86014533036940E9B71A85A6876386B4
:1042700003003355F500CE8EF1B73244A244124903
:104280008249410182808280B7170140054723A8F7
:10429000E780094723AAE78083A60166B687FD1752
:1042A000FDFFB7170140094723A8E780B687FD1730
:1042B000FDFFB7170140054723AAE780094723AA56
:1042C000E780B687FD17FDFFB7170140094723A810
:1042D000E780B687FD17FDFFB7170140094723AAFE
:1042E000E780B687FD17FDFFB7170140094723A8F0
:1042F000E78036857D157DFD83C7716795C33716C9
:1043000001401306068089452E88232A0601368738
:104310007D177DFF0CCA36877D177DFFFD17F5F7EA
:10432000FD4537160140130606800948C288232A36
:104330001601B687FD17FDFF18469357670013F760
:10434000170023280601B687FD17FDFF9317F70115
:10435000C98F13D51700FD15F9F9B71701400547A7
:1043600023A8E780094723AAE780B687FD17FDFF4A
:104370003716014083278680998313F717008947F2
:104380002328F680B687FD17FDFF9317F7015D8D93
:10439000B7170140094723AAE780B687FD17FDFF3D
:1043A000B7170140094723A8E780B687FD17FDFF2F
:1043B000B7170140054723AAE780094723AAE780EA
:1043C000B687FD17FDFFB7170140094723A8E7800F
:1043D000FD16FDFE8280B7170140054723A8E78040
:1043E000094723AAE78003A60166B287FD17FDFFF0
:1043F000B7170140094723A8E780B287FD17FDFFE3
:10440000B7170140054723AAE780094723AAE78099
:10441000B287FD17FDFFB7170140094723A8E780C2
:10442000B287FD17FDFFB7170140094723AAE780B0
:10443000B287FD17FDFFB7170140094723A8E780A2
:10444000B287FD17FDFF03C7716715C3B71601409B
:104450009386068089452E8823AA0601B287FD1718
:10446000FDFF8CCAB287FD17FDFF7D1775F7B717E3
:1044700001401307000823AAE780094723AAE78021
:10448000B287FD17FDFFB7170140094723A8E78052
:10449000B287FD17FDFFB7170140094723AAE78040
:1044A000B287FD17FDFFB7170140094723A8E78032
:1044B000B287FD17FDFFB7170140094723AAE78020
:1044C000B287FD17FDFFB7170140094723A8E78012
:1044D000B287FD17FDFFFD46371701401307078020
:1044E0009308000889452E8839A8232A1701232A12
:1044F0000701B287FD17FDFF0CCBB287FD17FDFF4B
:104500000581FD1699C693771500E5D32328170179
:10451000F9BF9387C165B42FBC3F9D8E85476382E9
:10452000F60E058961C9B71701401307000823A8D3
:10453000E780B7170140094723AAE78003A7016670
:10454000BA87FD17FDFFB7170140094623A8C780AA
:10455000BA87FD17FDFFF9168DC237160140130605
:10456000068089452E8548CABA87FD17FDFF0CCA0B
:10457000BA87FD17FDFFFD16FDF6B717014085460A
:1045800023A8D780894623AAD780BA87FD17FDFFC5
:10459000B7170140894623A8D7807D177DFFB7173D
:1045A0000140094723AAE78083A701663E877D175C
:1045B0007DFF3717014089462328D7803E877D1726
:1045C0007DFF371701408546232AD7808946232A55
:1045D000D7803E877D177DFF371701408946232806
:1045E000D780FD17FDFFB71701401307000823A868
:1045F000E7808280B71701401307000823AAE780ED
:104600000DBFB7170140054723A8E78005890DC9ED
:10461000B71701401307000823A8E780B717014028
:10462000094723AAE78083A701663E877D177DFFA0
:104630003717014089462328D780FD17FDFF85B72E
:10464000B71701401307000823AAE780C1BF83C73B
:10465000D165638F0714B7170140854623A8D7801B
:10466000094723AAE78023A8E78023AAE78023A895
:10467000E78023AAD78023AAE78023A8E78023AA7C
:10468000E78023A8E7801307000823A8E780938723
:10469000C165B83F21070607BA97DE2B91CB3717C4
:1046A000014013070780894654CB14CBFD17EDFF5B
:1046B0009387C165B83FBA97D82F7D1705C7B7173D
:1046C00001409387078013060008894639A0D0CBA4
:1046D000D4CB94CB05817D1711C793751500E5D90F
:1046E00090CBFDB79387C165B83F41070607BA97DE
:1046F000DE2BD9C3058935C9371701409306000859
:104700002328D780371701408946232AD7802328BA
:10471000D780930600082328D780FD1791CB371741
:10472000014013070780894654CB14CBFD17EDFFDA
:10473000B7170140054723A8E780094723AAE78068
:1047400023A8E780B7170140094723AAE78023A8D9
:10475000E780854623AAD78023AAE78023A8E7809D
:104760001307000823A8E7808280371701409306CB
:104770000008232AD78079B7B7170140054723A837
:10478000E780058919CDB71701401307000823A852
:10479000E780B7170140094723AAE78023A8E780ED
:1047A00055B7B71701401307000823AAE780D5B70C
:1047B000B7170140054723A8E780094723AAE780E8
:1047C00083A701663E877D177DFF37170140894625
:1047D0002328D7803E877D177DFF37170140894604
:1047E000232AD7803E877D177DFF371701408946F2
:1047F0002328D7803E877D177DFF371701408546E8
:10480000232AD7808946232AD7803E877D177DFFBC
:104810003717014089462328D7803E877D177DFFC3
:10482000371701408946232AD7803E877D177DFFB1
:104830003717014089462328D7803E877D177DFFA3
:1048400037170140930600082328D7801387C165D6
:10485000343FA106860636975A2B15C337160140FA
:104860001306068089452E88232A0601BE86FD167A
:10487000FDFE0CCABE86FD16FDFE7D1775F713877B
:10488000C165343F3697542FFD168DCE3717014042
:1048900013070780930500080948C28839A84CCB44
:1048A000232A17013E867D167DFE232807013E86BA
:1048B0007D167DFE0581FD1691C61376150065D225
:1048C0000CCBF9BF9387C165B83F41070607BA977C
:1048D000DA2B41CF058959C1B7170140930600086B
:1048E00023A8D780B7170140894623AAD78083A77A
:1048F0000166BE86FD16FDFEB7160140094623A8D7
:10490000C680BE86FD16FDFEB716014013060008E0
:1049100023A8C680938606807D1711CF36868945E9
:104920002E8548CABE86FD16FDFE0CCABE86FD1643
:10493000FDFE7D177DF73717014085462328D78078
:104940008946232AD7803E877D177DFF3717014090
:1049500089462328D780FD17FDFFB1A0B717014076
:104960009306000823AAD780B5BFB71701400547B3
:1049700023A8E780058959C1B7170140130700082C
:1049800023A8E780B7170140094723AAE78083A738
:1049900001663E877D177DFF371701408946232832
:1049A000D780FD17FDFFB7170140094723AAE7800D
:1049B00083A701663E877D177DFF37170140894633
:1049C0002328D7803E877D177DFF37170140854616
:1049D000232AD7808946232AD7803E877D177DFFEB
:1049E0003717014089462328D780FD17FDFFB717E9
:1049F00001401307000823A8E7808280B717014011
:104A00001307000823AAE780B5BF83C7D165638970
:104A1000072CB7170140854623A8D780094723AA4A
:104A2000E78023A8E78023AAD78023AAE78023A8CA
:104A3000E78023AAE78023A8E78083C7716791CB2B
:104A40003717014013070780894654CB14CBFD1755
:104A5000EDFF93571500858BF5C3B717014013077A
:104A6000000823A8E780371601400947232AE6807B
:104A7000832786802328E68013060680958393F695
:104A8000270093572500858BE9C31307000818CA30
:104A9000B7170140094623AAC78003A78780198357
:104AA000058B23A8C78093573500858BD5C7B717CB
:104AB00001401306000823A8C780371601400948A3
:104AC000232A0681832786802328068113060680F1
:104AD0009183918BD58F5D8F85476306F708854657
:104AE00014CA894654CA14CAB7170140894623AA72
:104AF000D78023A8D780054623AAC78023AAD780BA
:104B000023A8D7809306000823A8D780137505082B
:104B100019C123A2016683C681669387F6FF81CE01
:104B2000B7160140938606800946FD55D0CA90CA43
:104B3000FD17E39DB7FE1375F70F8280B71701408D
:104B40001307000823AAE78039BFB71701401307EE
:104B5000000823AAE7802DBFB717014013060008FD
:104B600023AAC78099BF93772500C5C77D46014812
:104B7000B716014093860680894823AA16019C46F1
:104B800023A816019983FE07B3E7070113D817007E
:104B90007D1665F69387C165B42FBC3F9D8E854712
:104BA000638AF604371601408948232A1681832731
:104BB00086809983858B23281681F91699CA371622
:104BC000014013060680232A160123281601FD162C
:104BD000FDFAB7160140054623A8C680094623AA58
:104BE000C68023A8C680E38105F0FE07B3E707016E
:104BF0009CC1DDBDB7160140854723A8F680094654
:104C000023AAC68083A786809983858B23A8C68024
:104C1000D9BF94417D46B717014093870780130899
:104C20000008894501A823A80701CCCB8CCB85823D
:104C30007D1601CA93F81600E39708FE23AA070120
:104C4000EDB71386C1653C2E303E918F0546638DCE
:104C5000C704858AB9C2B71601401306000823A805
:104C6000C680B7160140094623AAC68023A8C6807D
:104C7000F91789CBB716014093860680D0CA90CA2F
:104C8000FD17EDFFB7170140854623A8D780894659
:104C900023AAD78023A8D78081BDB7160140130669
:104CA000000823AAC68075BFB7170140054623A890
:104CB000C780858A99CEB71701409306000823A8BC
:104CC000D780B7170140894623AAD78023A8D78069
:104CD00021BDB71701409306000823AAD780D5B796
:104CE000B7170140054723A8E780094723AAE780B3
:104CF00083A701663E877D177DFF371701408946F0
:104D00002328D7803E877D177DFF371701408546D2
:104D1000232AD7808946232AD7803E877D177DFFA7
:104D20003717014089462328D7803E877D177DFFAE
:104D3000371701408946232AD7803E877D177DFF9C
:104D40003717014089462328D7803E877D177DFF8E
:104D500003C771671DC33716014013060680094853
:104D6000C288232A1601BE86FD16FDFE23280601F1
:104D7000BE86FD16FDFE7D176DF793571500858BDA
:104D8000638B0716B71701401307000823A8E780B5
:104D9000B7170140094723AAE78083A701663E872A
:104DA0007D177DFFB716014003A786801983058B09
:104DB000094623A8C680BE86FD16FDFE13181700FF
:104DC00013572500058B630F071237170140930611
:104DD00000082328D780371701408946232AD78027
:104DE0003E877D177DFF3717014003268780198294
:104DF000058A89462328D7803E877D177DFF135774
:104E00003500058B6307071037170140930600082C
:104E10002328D780371701408946232AD7803E8729
:104E20007D177DFFB716014003A786801983058B88
:104E3000894823A81681BE86FD16FDFE0A07336742
:104E40000701598E0547630DE60C3717014085466B
:104E50002328D7808946232AD7803E877D177DFF68
:104E60003717014089462328D780FD17FDFFB71764
:104E70000140094723AAE78083A701663E877D1783
:104E80007DFF3717014089462328D7803E877D174D
:104E90007DFF371701408546232AD7808946232A7C
:104EA000D7803E877D177DFF37170140894623282D
:104EB000D7803E877D177DFF371701409306000896
:104EC0002328D7801375050819C123A2016683C65C
:104ED00081667D58371501408945FD16638F062789
:104EE000232AB5803E877D177DFF2328B5803E8726
:104EF0007D177DFFDDB7B71701401307000823AA10
:104F0000E78079B53717014093060008232AD78038
:104F1000D9B53717014093060008232AD780DDBD95
:104F200013772500630607107D43B7180140938867
:104F30000880094EF28E23AAD8013E877D177DFF97
:104F400003A788001983058B23A8C8013E887D1814
:104F5000E31F08FE7E07558F935617007D13E31C51
:104F600003FC1387C1658348A701383FB388E84035
:104F700005476383E808371701400948232A07815A
:104F80003E877D177DFF37180140032788801983EE
:104F9000058B0943232868803E887D18E31F08FE9F
:104FA000F918638708023713014013030380094E81
:104FB000F28E232AD3013E887D18E31F08FE2328A2
:104FC000C3013E887D18E31F08FEFD18E39308FE29
:104FD000371801408548232818818948232A1881D9
:104FE0003E887D18E31F08FE3718014089482328B2
:104FF0001881FD17FDFF3DA0371701400548232804
:1050000007810948232A07813E877D177DFF3718CE
:105010000140032788801983058B8948232818813C
:10502000FD17FDFFE38505E47E07558F98C181B527
:105030008C417D483717014013070780930800080B
:1050400009431A8E0DA0232A1701232AC701BE8601
:10505000FD16FDFE23286700BE86FD16FDFE858138
:105060007D186308080093F61500F1DE2328170168
:10507000E9BF1387C165342F383F998E0547638A8E
:10508000E6088589C1C1B71701401307000823A8A6
:10509000E780B7170140094723AAE78003A7016605
:1050A000BA87FD17FDFFB7170140894523A8B780D0
:1050B000BA87FD17FDFFF9169DC2B715014093850C
:1050C00005800948C28823AA1501BA87FD17FDFF8C
:1050D00023A80501BA87FD17FDFFFD16EDF6B717EA
:1050E0000140854623A8D780894623AAD780BA875E
:1050F000FD17FDFFB7170140894623A8D7807D170C
:105100007DFFB5B3B71701401307000823AAE78056
:1051100049B73717014085462328D78085899DC523
:1051200037170140930600082328D780371701401E
:105130008946232AD7803E877D177DFF3717014098
:1051400089462328D780FD17FDFF15B33717014087
:1051500093060008232AD780D1BF1375F60F8280EB
:105160001308F5FF29C903A50166814601473716D3
:10517000014013060680854E8948468E7D5315A052
:10518000232AD601232AC601AA87FD17FDFF23285B
:105190001601AA87FD17FDFF0583FD167D18630C18
:1051A000680081E698218505A14693771700E9DB21
:1051B0002328D601C1BF82809376F503CDC613752F
:1051C000050801CD214581453718014013080880A5
:1051D00009431A8E9388C16529A8D9EA828093066B
:1051E0000004CDB7930716000CA295CE3E86AA8583
:1051F0002145232AC80183A748003E877D177DFFEC
:1052000003278800058B23286800FD17FDFF858193
:1052100093177700DD8D7D15FD1669D5F9FAB3D7A3
:10522000A5001CA28280828023AA650023AA150102
:10523000AA87FD17FDFF23A80501AA87FD17FDFF1B
:1052400005827D17FD1609CB99C693771600E9DF15
:1052500023A86500E1BF828091C603460E00050EBB
:105260002147E5B782801375050835F993060004D8
:10527000138E1500902103A501662147B715014043
:105280009385058005430948C288C1B783C7D165A6
:105290006386073AB7170140054723A8E780094707
:1052A00023AAE78023A8E78093771500638C07166D
:1052B000B7170140054723A8E780B7170140094702
:1052C00023AAE78023A8E7809357150013F7170058
:1052D000630007163717014085462328D780371704
:1052E00001408946232AD7802328D78013572500D9
:1052F000BA97058B630407143717014085462328A6
:10530000D780371701408946232AD7802328D780A2
:10531000AA979356350013F716006307071237173D
:10532000014005462328C780371701400946232A34
:10533000C7802328C78013070780B697858B638BA8
:105340000710BA87054798CBB7160140094723AA2B
:10535000E68023A8E680054623AAC68023AAE68025
:1053600023A8E68023A8C68023AAE68023A8E68097
:1053700023A8C68083A70680C19B93E7870023A04C
:10538000F68083C7416791CB371701401307078029
:10539000894654CB14CBFD17EDFF371701408946E2
:1053A000232AD780032887802328D780232AD780E1
:1053B000832787802328D780232AD78003268780C6
:1053C0002328D78013F717000607937716008A075C
:1053D0005D8F937718005D8F85476303F708930708
:1053E000E7FFF59B6386071C83C741679387170216
:1053F000B7160140938606800946D0CA90CAFD17A9
:10540000EDFFB7160140854523AAB68083A7068025
:10541000C19B93E7370023A0F68023A8B6801375BD
:10542000F70F8280B7170140054723AAE78071B5BF
:10543000371701408546232AD78055B537170140D5
:105440008546232AD78075BD371701400546232A94
:10545000C780D9BDB7170140054723AAE780EDB53E
:1054600093772500DDCF1308000281468148371667
:105470000140130606800943232A66001C46858BDB
:1054800023286600BE988582FE07DD8E7D18E31511
:1054900008FEB7170140094623AAC78003A88780E2
:1054A00023A8C780B3C8080193F8180063830800D5
:1054B000214791C194C183C7416791CBB716014081
:1054C000938606800946D0CA90CAFD17EDFFB7162D
:1054D0000140054623AAC68083A70680C19B93E7A7
:1054E000370023A0F6801375050819C123A20166B1
:1054F00083C7816699CFB7160140054623AAC680A7
:10550000B7160140938606800946D0CA90CAFD1797
:10551000EDFFB7170140854623A8D7801375F70F15
:10552000828083C7416791CBB7160140938606807E
:105530000946D0CA90CAFD17EDFFB71601400546CF
:1055400023AAC68083A70680C19B93E7370023A0C8
:10555000F6809C4113060002814593860680054330
:10556000094819A823AA660023AA060123A8060150
:10557000BE9585837D1601CA93F81700E38408FE63
:1055800023A86600D5B7858991CDB7170140854618
:1055900023A8D780B7170140894623AAD78023A81C
:1055A000D78091B7B7170140854623AAD780DDB7CA
:1055B00083C7516799CF9377250081CF9307100256
:1055C000B7160140938606800946D0CA90CAFD17D7
:1055D000EDFF83C7416791CBB716014093860680E4
:1055E0000946D0CA90CAFD17EDFFB716014005461F
:1055F00023AAC68083A70680C19B93E7370023A018
:10560000F68083C751679DC309890DE1B717014033
:10561000854623AAD78093071002B71601409386C8
:1056200006800946D0CA90CAFD17EDFFB7170140A2
:10563000854623A8D7801375F70F8280B7170140DE
:10564000054723A8E780094723AAE78083A70166C7
:105650003E877D177DFF3717014089462328D78075
:105660003E877D177DFF13771500630A07263717DE
:10567000014085462328D780371701408946232AD1
:10568000D7803E877D177DFF371701408946232845
:10569000D7803E877D177DFF13571500937617003F
:1056A00063850624B7160140054623A8C680B716B1
:1056B0000140094623AAC680BE86FD16FDFEB71628
:1056C0000140094623A8C680BE86FD16FDFE9356FE
:1056D00025003697858A63800622B7160140054665
:1056E00023A8C680B7160140094623AAC680BE86F5
:1056F000FD16FDFEB7160140094623A8C680BE86EA
:10570000FD16FDFE2A971356350093761600638A20
:10571000061EB7160140054823A80681B7160140AA
:10572000094823AA0681BE86FD16FDFEB716014074
:10573000094823A80681BE86FD16FDFE3297058B1B
:105740006307071C3717014085462328D780371782
:1057500001408946232AD7803E877D177DFF371772
:10576000014089462328D7803E877D177DFF371764
:1057700001408546232AD7808946232AD7803E8741
:105780007D177DFF3717014089462328D7803E8744
:105790007D177DFF3717014085462328D78089462E
:1057A000232AD7803E877D177DFF37170140894622
:1057B0002328D780FD17FDFF371701408546232892
:1057C000D78083270780C19B93E787002320F7803A
:1057D00083C741678DC703A60166B716014093864C
:1057E00006800948C28823AA160132877D177DFFEB
:1057F00023A8060132877D177DFFFD17EDF7B71748
:105800000140094723AAE78083A701663E877D17E9
:105810007DFF3717014003268780137816008946DD
:105820002328D7803E877D177DFF371701408946A3
:10583000232AD7803E877D177DFF37170140032637
:105840008780058A89462328D7803E877D177DFF7C
:1058500093161600371701400946232AC7803E8752
:105860007D177DFF3717014003268780058A894809
:10587000232817813E877D177DFF0A06558E3366E4
:1058800006018546630BD6081307E6FF759B630484
:10589000072683C6416793861602B7150140938594
:1058A000058009452A8823AA05013E877D177DFFCB
:1058B00088C93E877D177DFFFD16F5F63717014035
:1058C0008545232AB78083270780C19B93E737004C
:1058D0002320F7802328B7801375F60F82803717AF
:1058E00001408546232AD78041BBB71601400546B3
:1058F00023AAC6806DBBB7160140054623AAC68001
:10590000D5B3B7160140054823AA068101BD371754
:1059100001408546232AD7801DBD93762500DDCE24
:105920003A88130E00023713014013030380894E97
:10593000768F232AE301BE86FD16FDFE83268300B3
:10594000858A2328D301BE88FD18E39F08FE369779
:1059500013581800FE0633E806017D1EE31B0EFCFB
:10596000B7160140894823AA1681BE86FD16FDFEA2
:10597000B716014083A8868093F81800094323A82E
:105980006680FD17FDFF058B63031701214699C152
:1059900023A0050103C741670DC783A50166B7169C
:1059A0000140938606800948C28823AA1601AE8763
:1059B000FD17FDFF23A80601AE87FD17FDFF7D172C
:1059C0006DF7371701408546232AD7808327078044
:1059D000C19B93E737002320F780C1A003C841672C
:1059E00063050802B71801409388088009431A8E9E
:1059F00023AAC801BE86FD16FDFE23A86800BE8648
:105A0000FD16FDFE7D18E31508FEB716014005489A
:105A100023AA068183A70680C19B93E7370023A0B2
:105A2000F6809C4183A8016613080002B715014067
:105A3000938505800543094EF28E15A023AA6500C3
:105A400023AAD501C686FD16FDFE23A8C501C6867C
:105A5000FD16FDFE3E9785837D186308080093F6CA
:105A60001700E9DE23A86500E1BF058B3DCFB7171E
:105A70000140054723A8E780B7170140094723AA3B
:105A8000E78083A701663E877D177DFF37170140BA
:105A900089462328D780FD17FDFF1375050819C116
:105AA00023A2016603C781660DCBB7170140854667
:105AB00023AAD78083A50166B71601409386068086
:105AC00009452A8823AA0601AE87FD17FDFF88CA6B
:105AD000AE87FD17FDFF7D1775F7B7170140054726
