:020000040800F2
:10000000F8250020AD010008B5010008B70100087F
:10001000B9010008BB010008BD0100080000000094
:10002000000000000000000000000000BF01000808
:10003000C101000800000000C3010008AD2700084E
:10004000C7010008C7010008C7010008C701000870
:10005000C7010008C7010008C7010008C701000860
:10006000C7010008C7010008C7010008C701000850
:10007000C7010008C7010008C7010008C701000840
:10008000C7010008C7010008C7010008C701000830
:10009000C7010008C7010008C7010008C701000820
:1000A000C7010008C7010008C7010008C701000810
:1000B000C7010008C7010008C701000801200008A7
:1000C000C7010008C7010008C7010008C7010008F0
:1000D00000F002F800F05AF80AA090E8000C824400
:1000E0008344AAF10107DA4501D100F04FF8AFF2DD
:1000F000090EBAE80F0013F0010F18BFFB1A43F006
:1001000001031847C0490000E04900000A444FF0CD
:10011000000C10F8013B13F0070408BF10F8014B66
:100120001D1108BF10F8015B641E05D010F8016BAB
:10013000641E01F8016BF9D113F0080F1EBF10F80F
:10014000014BAD1C0C1B09D16D1E58BF01F801CB32
:10015000FAD505E014F8016B01F8016B6D1EF9D5B5
:100160009142D6D3704700000023002400250026CA
:10017000103A28BF78C1FBD8520728BF30C148BF0A
:100180000B6070471FB51FBD10B510BD00F01FF903
:100190001146FFF7F7FF03F09FF800F03DF903B4B5
:1001A000FFF7F2FF03BC00F045F900000948804763
:1001B00009480047FEE7FEE7FEE7FEE7FEE7FEE749
:1001C000FEE7FEE7FEE7FEE704480549054A064B61
:1001D00070470000BD270008D1000008F813002078
:1001E000F8250020F8150020F815002053EA020C2D
:1001F00000F069802DE9F04B4FF00006002B1FBF87
:10020000B3FA83F503FA05F424FA05F65E4012BF4B
:100210001643B2FA82F502FA05F4C5F120051EBFB5
:1002200022FA05FC44EA0C04203556EA044C4FEA55
:10023000144418BF641C4FF000084FF000099042AE
:1002400071EB030C39D3002919BFB1FA81F701FA18
:1002500007F6B0FA80F700FA07F6C7F120071EBFCD
:1002600020FA07FC46EA0C062037B6FBF4FCA7EBA5
:100270000507103F07F01F0BCBF120060CFA0BFB14
:100280002CFA06F644BFB3460026202FA4BF5E46D4
:100290004FF0000B5BEA060C08BF4FF0010B19EBA7
:1002A0000B09ABFB027C48EB0608C01B06FB02CC2B
:1002B0000BFB03CC71EB0C01C1E70B460246414638
:1002C0004846BDE8F08B13B54FF000004FF0000139
:1002D000AFF30080BDE81C407047032A40F2308035
:1002E00010F0030C00F0158011F8013BBCF1020F77
:1002F000624498BF11F801CB00F8013B38BF11F8F8
:10030000013BA2F1040298BF00F801CB38BF00F80E
:10031000013B11F0030300F02580083AC0F008808B
:1003200051F8043B083A51F804CBA0E80810F5E76F
:10033000121D5CBF51F8043B40F8043BAFF3008052
:10034000D20724BF11F8013B11F801CB48BF11F8C7
:10035000012B24BF00F8013B00F801CB48BF00F897
:10036000012B704710B5203AC0F00B80B1E818504F
:10037000203AA0E81850B1E81850A0E81850BFF48F
:10038000F5AF5FEA027C24BFB1E81850A0E818502E
:1003900044BF18C918C0BDE810405FEA827C24BF82
:1003A00051F8043B40F8043B08BF7047D20728BF10
:1003B00031F8023B48BF11F8012B28BF20F8023B5F
:1003C00048BF00F8012B704770477047704775466B
:1003D00000F02CF8AE4605006946534620F00700B1
:1003E000854618B020B5FFF7EFFEBDE820404FF07E
:1003F00000064FF000074FF000084FF0000B21F00F
:100400000701AC46ACE8C009ACE8C009ACE8C009DB
:10041000ACE8C0098D46704710B50446AFF30080C4
:100420002046BDE81040FFF7BABE00000048704704
:100430009413002001491820ABBEFEE726000200FD
:10044000704700002DE9FC410F460478002C00D1D4
:100450000124012502262B484FF09048012C07D09B
:10046000022C20D000243C704FF00110BDE8FC812C
:1004700005700221404602F0BDFE0121404602F017
:10048000B9FE684602F0B8FE00968DF8065069463F
:10049000404602F0BBFE00958DF805506946404687
:1004A00002F0B4FEDFE706700221404602F0A2FE31
:1004B0000121404602F09EFE8021404602F09AFE55
:1004C000684602F099FE00968DF80650694640464F
:1004D00002F09CFE00956946404602F097FE80209F
:1004E00000906946404602F091FE402000900020B6
:1004F0008DF806008DF805506946404602F086FEEC
:10050000B1E70000501300200278407842EA002052
:100510004001401EFDD108700048704701000200F4
:1005200070B50446034900250D7001F06FFD25707C
:10053000012070BD5013002030B504464278801C65
:10054000002A0BD010F8013B9D0703D5DB0602D52E
:10055000001D00E0001D521E002AF3D100220A7087
:100560004A70001B0004801C30BD000030B50278CA
:1005700020230E4D4FF09044002A05D0012A0AD0C6
:10058000FF200870284630BD4078C00701D0A36125
:1005900007E0A36205E04078C00701D0A36100E056
:1005A000A36200200870284630BD00000100020050
:1005B00010B503460846002400210522092B1CD053
:1005C00006DC052B34D2DFE803F03333333312007B
:1005D000FC2B2DD004DCF02B15D0F12B28D117E00B
:1005E000FD2B25D0FE2B20D0FF2B21D118E0062497
:1005F00022461049FFF771FE1AE00FA31B68036043
:100600000171144614E033220270417002240FE09D
:100610000170E1214170F5218170C270042407E06E
:10062000402202704170022402E00821017001247E
:10063000204610BD864A000856312E3200000000C8
:10064000F0B510F8014B104EB4760022002308E0FC
:1006500010F8015BF7183D7706EB4307BA842A448C
:100660005B1CA342F4D3002006E033181B7FD21A90
:1006700006EB40039A86401CA042F6D30020087087
:10068000641C2004401CF0BD5013002010B50C4623
:100690000E490A78022A14D10078C876897E8842E9
:1006A0000FD20E2000F0CCFF01F0C8F8002121701D
:1006B0006070010AA170010CE170000E2071044805
:1006C00010BDFF2020704FF0011010BD501300200E
:1006D000050001002DE9F047002201F8012B8946B1
:1006E0000125012610F8018B15E010F8017B8246E8
:1006F00007F03F0000B94020C01DC4084A465146DB
:10070000384601F0FDF80AEB040025446D1C39065B
:1007100001D5A1442644B8F10108E6D246EA0540D5
:10072000BDE8F0872DE9F04F85B004460494002021
:10073000029003918D1CD84900220A700026814640
:10074000D64A14F8011BD176927E91427ED214F8DB
:1007500001ABBAF1000F7AD014F8017BF90702D08F
:100760004FF00B0801E04FF00A08B90770D5B9F156
:10077000000F48D0C948B0F810B046450FD1F80670
:100780000DD46946384601F005F902281ED1BBF1A7
:10079000010B1BD3C04909780029F2D016E00A2EBC
:1007A00003D00A26304600F04BFFDFF8EC92694692
:1007B0000E2001F0EFF8022806D1BBF1010B03D3A4
:1007C00099F800100029F2D04FF0000901283ED11D
:1007D000009929700099090A69700099090CA9709B
:1007E0000099090EE9702D1DB9F1000F0BD03906E3
:1007F00009D5AA49896829700A0A6A700A0CAA7080
:10080000090EE9702D1DF90656D520786178E27839
:1008100040EA0120A178090441EA026108430190FD
:10082000241D9E48B0F812B0464503D046463046D7
:1008300000F006FF9948B0F810800021384601F01A
:10084000A9F802280AD1B8F1010802E005E185E023
:100850005DE003D3904909780029EED001287DD1CD
:100860008E48B0F810806946384601F093F80228A7
:1008700006D1B8F1010803D3874909780029F2D0DD
:1008800001280DD18549009A49691140019A914288
:1008900006D0BBF1010B03D37F4909780029DFD0D3
:1008A0007E49009A49691140019A914201D040F075
:1008B0001000012852D18CE0B9F1000F26D1464535
:1008C00003D04646304600F0BBFEDFF8D0B1BBF89F
:1008D00010800021384601F05DF8022806D1B8F1F9
:1008E000010803D36C4909780029F2D001287CD192
:1008F000390609D5DBF8081029700A0A6A700A0C53
:10090000AA70090EE9702D1D4FF0010961E0B9F1DF
:10091000000F27D00A2E03D00A26304600F090FEA2
:100920005E48B0F810B069460E2001F033F8022896
:1009300006D1BBF1010B03D3574909780029F2D046
:10094000012852D1009828700098000A6870009819
:10095000000CA8700098000EE87000E045E02D1D26
:100960004FF0000920786178E27840EA0120A17810
:10097000090441EA026108430090241DB90603D529
:1009800046494861012024E0464503D046463046AA
:1009900000F056FEDFF804B1BBF810806946384617
:1009A00000F0F8FF022806D1B8F1010803D33A4954
:1009B00009780029F2D0012817D1390609D5DBF8CA
:1009C000081029700A0A6A700A0CAA70090EE970E8
:1009D0002D1D0299491C02912F49097829B9AAF1C4
:1009E000010ABAF1000F7FF4B7AEBAF1000F0DD0D3
:1009F00014F8011B8A0703D5C90602D5241D00E09F
:100A0000241DAAF1010ABAF1000FF1D1012834D155
:100A10000A2E02D00A2000F013FEB9F1000F1DD0FB
:100A20001E48068A1C4F69460E2000F0B3FF0228BC
:100A300005D1761E711C02D039780029F3D0012827
:100A40001BD1009929700099090A69700099090C55
:100A5000A9700099090EE9702D1D0EE00F48068A55
:100A60000D4F00210E2000F095FF022805D1761EC3
:100A7000711C02D039780029F3D0DDE9021211701F
:100A8000039948700398291A049805B0201A41EA7E
:100A90000040BDE8F08F0000A002002050130020AD
:100AA0002DE9F84F0446002600208846CF1C524905
:100AB00000220A70DFF844B114F8011B8BF81B10F8
:100AC0009BF81A20914254D22178627841EA02259B
:100AD000A41C002D4DD014F8019B5FEAC97002D010
:100AE0004FF00B0A01E04FF00A0A504600F0A8FD53
:100AF0005FEA89705DD54148048ADFF8FCB00021C7
:100B0000484600F047FF022806D1641E611C03D04E
:100B10009BF800100029F2D0012862D126E03DB9EF
:100B2000BAF10A0F02D00A2000F08AFD4FF00E0938
:100B30003248048A6946484600F02CFF022806D154
:100B4000641E611C03D09BF800100029F2D001281C
:100B500047D1009939700099090A79700099090CF8
:100B6000B9700099090EF9703F1D761C6D1E691C45
:100B7000D5D136E020786178E27840EA0120A1788A
:100B8000090441EA026108430090241D1B48B0F8A3
:100B900010B06946484600F0FDFE022806D1BBF1C0
:100BA000010B03D3144909780029F2D0012818D188
:100BB000761C6D1E681CDDD1BAF10A0F02D00A2026
:100BC00000F03EFD0D48048A0B4D00210E2000F080
:100BD000E1FE022805D1641E611C02D0297800299B
:100BE000F3D088F80060310A88F8011088F8020014
:100BF000A7EB0800BDE8F88FA002002050130020EA
:100C000070B504460D460E492078C876897E884224
:100C100003D3FF202870012070BD082000F010FDD4
:100C20006078A178227940EA0120E178090441EA5C
:100C30000261084301F032F900202870012070BDE4
:100C40005013002010B50278A2F180031F2B02D8A8
:100C500000F06DF810BD01F8012B0C4610F8011BD7
:100C60001E295ED2DFE801F00F171B1F4B4F535DAB
:100C70005723275D5D5D5D5D2B2F33373F43475D18
:100C80005D5D5D5D5D3B0078611CFFF791FC207050
:100C900000F1021010BD2146FFF768FC3EE021463E
:100CA000FFF7D0FB3AE02046FFF73AFC36E021465A
:100CB000FFF72AFC32E0204600F03EF82EE0214605
:100CC00000F030FB2AE0214600F0FAFA26E0214647
:100CD00000F0B2FB22E0214600F034F81EE021468D
:100CE00000F040F81AE02146FFF7F4FC16E0214638
:100CF000FFF7A6FC12E02146FFF7C8FC0EE02146F4
:100D000000F018FC0AE0214600F0DEFB06E0214678
:100D100000F0E8FB02E0214600F022FC00F10110A7
:100D200010BDFF2004F8010C4FF0011010BDFF2092
:100D300008704FF0011070470021417001700220CF
:100D4000704700000078064A00F003035B1C13762E
:100D5000C0F380005076002008704FF001107047FB
:100D6000501300202DE9F05F002201F8012B8A4684
:100D700001254FF0010910F8018B04464FF0904B0C
:100D800033E014F8017B07F03F0000B94020C01D9C
:100D9000C608380606D5DBF8000020F00300CBF8C3
:100DA000000008E00120CBF82800DBF8000040F04C
:100DB0000100CBF8000052462146384601F05EF9AA
:100DC000B8F1000F08D10120CBF82800DBF80000B3
:100DD00040F00100CBF80000380603D56D1CB2448A
:100DE000B14402E0344435446D1CB8F10108C8D266
:100DF00049EA0540BDE8F09F2DE9F04F87B0054670
:100E000006950020049005918C1CDFF850A300216A
:100E10008AF80010002703916D1C15F8018BB8F1BA
:100E2000000F7DD015F8016BB1077AD5F7B3DFF865
:100E300030B3BBF8109006F0110001280DD101A9C4
:100E4000304601F06BF9022815D1B9F1010912D32E
:100E50009AF800100029F2D00DE001A90E2001F04F
:100E60005DF9022806D1B9F1010903D39AF80010FF
:100E70000029F2D00027012852D10199217001994F
:100E8000090A61700199090CA1700199090EE170BC
:100E9000241D5FB131060BD5DBF8081021700A0A5A
:100EA00062700A0CA270090EE17000E000E0241DDF
:100EB000F10651D528786978EA7840EA0120A978C6
:100EC000090441EA0261084302902D1DA448B0F8CC
:100ED00012B0F00711D0A248B0F8109000213046AF
:100EE00001F01CF9022806D1B9F1010903D39AF8DF
:100EF00000100029F2D00128BED19948B0F8109016
:100F000001A9304601F00AF9022806D1B9F1010918
:100F100003D39AF800100029F2D0012810D101E083
:100F200098E069E08E49019A49691140029A91421C
:100F300006D0BBF1010B03D39AF800100029DCD0D6
:100F40008749019A49691140029A914201D040F0C3
:100F5000100001287ED14CE0DFF804B2BBF81090FD
:100F6000F1071DD0F7BB0021304601F0D7F8022869
:100F700006D1B9F1010903D39AF800100029F2D083
:100F8000012867D1310609D5DBF8081021700A0A5B
:100F900062700A0CA270090EE170241D012728E07E
:100FA00001A9304601F0BAF8022806D1B9F10109C9
:100FB00003D39AF800100029F2D001287DD1310620
:100FC00009D5DBF8081021700A0A62700A0CA270B9
:100FD000090EE170241D019921700199090A6170BF
:100FE000019900E005E0090CA1700199090EE1707A
:100FF000241D0021039154E0F7B15948B0F8109036
:1010000001A90E2001F08AF8022806D1B9F10109E0
:1010100003D39AF800100029F2D001284DD101988D
:1010200020700198000A60700198000CA07001986F
:10103000000EE070241D002728786978EA7840EADD
:101040000120A978090441EA0261084301902D1D9D
:10105000B10600E031E003D541494861012020E0BC
:10106000DFF8FCB0BBF8109001A9304601F056F84B
:10107000022806D1B9F1010903D39AF8001000291A
:10108000F2D0012819D1310609D5DBF808102170FA
:101090000A0A62700A0CA270090EE170241D012177
:1010A00003910499491C04919AF8001029B9A8F1F8
:1010B0000108B8F1000F7FF4B5AEB8F1000F0DD004
:1010C00015F8011B8A0703D5C90602D52D1D00E0BE
:1010D0002D1DA8F10108B8F1000FF1D101282FD181
:1010E000EFB11F48068A01A90E2001F017F8022867
:1010F00006D1761E711C03D09AF800100029F2D098
:1011000001281DD1019921700199090A6170019985
:10111000090CA1700199090EE170241D10E00399DA
:1011200071B10F48068A00210E2000F0F7FF022857
:1011300006D1761E711C03D09AF800100029F2D057
:10114000DDE904121170059948700598211A069876
:1011500007B0281A41EA0040BDE8F08FA002002045
:10116000501300202DE9F84F044600260020894640
:10117000CF1CDFF818A100218AF80010641C217828
:10118000627841EA0225A41C002D74D014F8018B6A
:10119000DFF8FCB05FEA88715BD55FEAC87135D0D3
:1011A000BBF810400021404600F0B8FF022806D1ED
:1011B000641E611C03D09AF800100029F2D00128A7
:1011C00059D123E025B95FEAC87001D04FF00E086D
:1011D000BBF810406946404600F0A0FF022806D147
:1011E000641E611C03D09AF800100029F2D0012877
:1011F00041D1009939700099090A79700099090C58
:10120000B9700099090EF9703F1D761C6D1E691C9E
:10121000D8D130E020786178E27840EA0120A178E6
:10122000090441EA026108430090241D1848B0F8FF
:1012300010B06946404600F071FF022806D1BBF1AC
:10124000010B03D39AF800100029F2D0012812D123
:10125000761C6D1E681CDDD10D48048A00210E200D
:1012600000F05CFF022806D1641E611C03D09AF8CE
:1012700000100029F2D089F80060310A89F80110C5
:1012800089F80200A7EB0900BDE8F88FA002002052
:101290005013002038B50C464178827841EA02228A
:1012A000C1780079090441EA00600243009269466E
:1012B000002000F033FF00202070012038BD000026
:1012C00030B50278437842EA03228378C0781B0461
:1012D00043EA006002430F48002A08D00E4D002464
:1012E0000E4BAA4206D301225A705A600FE0FF2229
:1012F0000A7030BD5C700A4D1544B5FBF2F2022A4B
:1013000003D90325B2FBF5F200E001225A600C700C
:1013100030BD00000100040000366E0150130020B3
:10132000FF6BDC02F0B5037842788478C57844EA34
:101330000524057940792D0445EA00600443D5076A
:101340004FF0904006D0DE074FF0020501D08561D6
:1013500000E08562950706D59E074FF0010501D58F
:10136000856100E08562550707D59D08EE074FF0BF
:10137000800501D0856100E08562150607D5DD098D
:10138000EE074FF0100501D0856100E0856200276F
:1013900094B3264DAC4200D92C4664256C43DFF84B
:1013A00090C0DCF80460D50704D00569C5F340059A
:1013B0009D421CD1950705D50569C5F30005B5EB20
:1013C000530F14D1550705D50569C5F3C015B5EB05
:1013D000930F0CD1950602D5B7EB531F07D1150615
:1013E0000AD50569C5F30015B5EBD31F04D0DCF8A9
:1013F0000450AD1BA542D6D30269C2F34002036973
:10140000C3F3000342EA43030269C2F3C01243EA92
:1014100082030269C2F3801243EAC2020069000932
:1014200042EAC01008700348F0BD0000C0C62D009D
:10143000001000E00100060070B50D4610F8014BE9
:101440000146002C01D14FF48074204601F088F948
:1014500000202870E41DE008401C0004401C70BD02
:101460007CB518480021017041700A224260017366
:1014700064220282418241610124047641768176B0
:1014800000F0C4FD684601F0B7FE202500958DF8F8
:1014900006404FF090466946304601F0B7FE009591
:1014A0006946304601F0B2FE1021304601F0A2FE3E
:1014B000102100918DF804406946304601F0A6FEE7
:1014C0007CBD000050130020054A1278012A03D089
:1014D000022A03D0FFF730B8FFF78EBCFFF722B91E
:1014E0005013002010B504461148007801280CD094
:1014F00002280ED000200870487088700320E17820
:1015000089070AD540F4802010BD2046FFF72AFE47
:10151000F5E72046FFF7C4FAF1E76178A27841EADF
:101520000221042202EB810140EA014010BD0000CB
:101530005013002010B5084A037813734378847859
:1015400043EA04231382C378007943EA00205082DF
:1015500000200870014810BD501300200100050054
:1015600010B5094A1278012A07D0022A08D0FF20B4
:101570000870012040F4A02010BDFFF78BFEF9E7B2
:10158000FFF73EFBF6E700005013002070B503465E
:1015900001251878072816D0104C6068A268904280
:1015A00002D16078002810D10D48626800EB8210EB
:1015B0000A461946FEF791FE6068401C606060684C
:1015C000082803D004E00748057070BD0020606063
:1015D0006068A1688842F8D1657070BD740200200F
:1015E000EC050020A002002010B5124C2069E16833
:1015F000884201D1A078D0B10F48216930F811306C
:101600002169A0F5007000EB811281210B4802F0E6
:10161000C8FD2069401C206121690020082900D1F3
:1016200020612169E268914200D1A07010BD0120C3
:10163000207010BD74020020EC090020AC020020D4
:1016400003494978002901D000F004B800F056B8E9
:1016500050130020F0B54FF0904201259561022310
:1016600093629361936293619562936293619362D3
:101670009361802494612049CF7E01EB4706B18CB1
:10168000002904D093629361491E0029FAD11A49B6
:101690001C31795C491E51B1C70701D0946100E04B
:1016A0009462936293614008491E0029F4D1B18E7F
:1016B00091B1C00701D0946100E09462936293619C
:1016C0009461491E21B193629361491E0029FAD1A8
:1016D00095619362936107E09561C00701D09461C1
:1016E00000E0946293629361936293619562936266
:1016F00093619461F0BD0000501300202DE9F0418A
:101700004FF090440127A7610226A6624A4B596810
:101710000A46521EFDD1A6610A46521EFDD1A6629E
:101720000A46521EFDD1A6610A46521EFDD1A7628D
:10173000A6620A46521EFDD1A6610A46521EFDD17E
:10174000A6620A46521EFDD1A6610A46521EFDD16E
:101750008025A56193F81B8003EB480CBCF824306E
:1017600053B1A6620A46521EFDD1A6610A46521E18
:10177000FDD15B1E002BF4D12F4A1C3218F8023029
:101780005B1E83B1C20701D0A56100E0A562A6621D
:101790000A46521EFDD1A6610A46521EFDD14008DE
:1017A0005B1E002BEED1BCF8342022B3C00701D061
:1017B000A56100E0A562A6620846401EFDD1A661B3
:1017C0000846401EFDD1A561521E52B1A6620846D0
:1017D000401EFDD1A6610846401EFDD1521E002AC2
:1017E000F4D1A761A6620846401EFDD1A661084655
:1017F000401EFDD10DE0A761C00701D0A56100E04A
:10180000A562A6620846401EFDD1A6610846401E9C
:10181000FDD1A6620846401EFDD1A6610846401EC5
:10182000FDD1A762A6620846401EFDD1A661491EF1
:10183000FDD1A561BDE8F08150130020F0B54FF057
:10184000904301259D6102249C622C4A5168084600
:10185000401EFDD19C610846401EFDD19D629C62E8
:101860000846401EFDD19C610846401EFDD19C6289
:101870000846401EFDD19C610846401EFDD1D27E27
:1018800052B19C620846401EFDD19C610846401E34
:10189000FDD1521E002AF4D100261F229C62084668
:1018A000401EFDD11869C0F380179C610846401E98
:1018B000FDD146EAC7704608521E002AEED19D614E
:1018C0009C620846401EFDD11869C0F380129C61DD
:1018D0000846401EFDD146EAC2709C620A46521E6E
:1018E000FDD19C610A46521EFDD19D629C620A4652
:1018F000521EFDD19C61491EFDD1F0BD5013002048
:101900002DE9F04F00F03F03002B00D140234506A6
:101910004FF001044FF0904802D5C8F8184001E09C
:10192000C8F828404FF0800A4FF00209DFF860B095
:1019300029E011F8016B002708241CE0F50702D00C
:10194000C8F818A001E0C8F828A0C8F82890DBF86B
:1019500004C065466D1EFDD1D8F81050C5F3801542
:10196000C8F81890BCF1010CFCD176087F0847EA52
:10197000C517641E5B1E0CB1002BDFD1E7400406C7
:1019800001D502F8017B002BD3D1BDE8F08F000018
:1019900050130020034A5278002A01D000F004B806
:1019A00000F0FAB8501300202DE9F0474FF09044B2
:1019B0000126A6614FF0020CC4F828C0C4F818C074
:1019C000A662C4F828C0C4F818C0C4F828C0C4F877
:1019D00018C0DFF8BCA19AF81B20002A06D0C4F872
:1019E00028C0C4F818C0521E002AF8D14208D207F5
:1019F0004FF0800501D0A56100E0A562C4F828C0C1
:101A00002269C2F38012C4F818C052008308DB07B1
:101A100001D0A56100E0A562C4F828C02369C3F322
:101A20008013C4F818C01A43C308DB0701D0A561AE
:101A300000E0A562C4F828C02369C3F38013C4F88A
:101A400018C042EA8309B9F1010F05D0A661C4F8B4
:101A500028C0C4F818C07CE04D4B87079A7EDB7E17
:101A6000A2EB03083AD500231F22C4F828C0276937
:101A7000BF09C4F818C043EAC7735B08521E002AA6
:101A8000F3D1A8F10108B8F1000F1AD0C4F828C0AA
:101A90002269C2F38012C4F818C0A8F10108B8F195
:101AA000000F08D0C4F828C0C4F818C0A8F1010875
:101AB000B8F1000FF6D1A661C4F828C0C4F818C068
:101AC00007E0A661C4F828C02269C2F38012C4F8F6
:101AD00018C043EAC27289B30A603AE009681F225B
:101AE000CB0701D0A56100E0A562C4F828C0C4F806
:101AF00018C04908521E002AF2D1A8F10108B8F115
:101B0000000F1CD0C90701D0A56100E0A562C4F890
:101B100028C0C4F818C0A8F10108B8F1000F08D017
:101B2000C4F828C0C4F818C0A8F10108B8F1000F23
:101B3000F6D1A661C4F828C0C4F818C009E0A661AF
:101B4000C90701D0A56100E0A562C4F828C0C4F8A7
:101B500018C0C4F828C0C4F818C0A662C4F828C0C9
:101B6000C4F818C0A561000603D50A484068CAF841
:101B700008009AF80C0003E0C4F828C0C4F818C0A4
:101B8000401E411CF8D109F0FF00BDE8F0870000BD
:101B900050130020001000E02DE9F04F4FF0904569
:101BA0000127AF614FF0020CC5F828C0DFF8E482CE
:101BB000D8F8042013465B1EFDD1C5F818C01346A3
:101BC0005B1EFDD1AF62C5F828C013465B1EFDD178
:101BD000C5F818C013465B1EFDD1C5F828C01346D2
:101BE0005B1EFDD1C5F818C013465B1EFDD198F8E9
:101BF0001B4064B1C5F828C013465B1EFDD1C5F873
:101C000018C013465B1EFDD1641E002CF2D14308A0
:101C1000DB074FF0800601D0AE6100E0AE62C5F890
:101C200028C013465B1EFDD12B69C3F38014C5F891
:101C300018C013465B1EFDD164008308DB0701D08A
:101C4000AE6100E0AE62C5F828C013465B1EFDD150
:101C50002B69C3F38019C5F818C013465B1EFDD16C
:101C600044EA0904C308DB0701D0AE6100E0AE62BC
:101C7000C5F828C013465B1EFDD12B69C3F380193C
:101C8000C5F818C013465B1EFDD144EA8909B9F1B5
:101C9000010F0AD0AF61C5F828C01146491EFDD119
:101CA000C5F818C0521EFDD1C4E07A4C5FEA807AB4
:101CB000A37EE47EA3EB040865D500241F23C5F8AA
:101CC00028C09246BAF1010AFCD1D5F810A0CAF397
:101CD000801AC5F818C09346BBF1010BFCD144EA49
:101CE000CA7464085B1E002BE9D1A8F10108B8F1A1
:101CF000000F33D0E2462B46C5F828C09346BBF10F
:101D0000010BFCD1D3F810B0CBF3801BC3F818A0A3
:101D10009646BEF1010EFCD1A8F10108B8F1000F02
:101D200010D0C3F828A09646BEF1010EFCD1C3F82E
:101D300018A09646BEF1010EFCD1A8F10108B8F139
:101D4000000FEED19F61C3F828A09046B8F10108BA
:101D5000FCD1C3F818A0521EFDD10FE0A846AF6118
:101D6000E246C8F828C013465B1EFDD1D8F81030F3
:101D7000C3F3801BC8F818A0521EFDD144EACB72F1
:101D8000F1B30A6056E009681F24CB0701D0AE61A9
:101D900000E0AE62C5F828C013465B1EFDD1C5F851
:101DA00018C013465B1EFDD14908641E002CECD1FF
:101DB000A8F10108B8F1000F2CD0C90701D0AE611D
:101DC00000E0AE6264462B46C5F828C01146491EA5
:101DD000FDD19C611146491EFDD1A8F10108B8F161
:101DE000000F0CD09C621146491EFDD19C6111462A
:101DF000491EFDD1A8F10108B8F1000FF2D100E0B1
:101E000018E09F619C621146491EFDD19C61521EE3
:101E1000FDD10FE02B46AF61C90701D09E6100E004
:101E20009E626446C3F828C01146491EFDD19C61DC
:101E3000521EFDD1C5F828C0164A53681946491EDE
:101E4000FDD1C5F818C01946491EFDD1AF62C5F8CD
:101E500028C01946491EFDD1C5F818C01946491EAB
:101E6000FDD1AE61000602D50B4840689060107B42
:101E700009E0C5F828C01A46521EFDD1C5F818C0A1
:101E80001946491EFDD1401E411CF2D109F0FF0048
:101E9000BDE8F08F50130020001000E02DE9F04164
:101EA0004FF0904301259D6102249C62DFF84CC1F4
:101EB000DCF804100A46521EFDD19C610A46521EEF
:101EC000FDD19D629C620A46521EFDD19C610A466C
:101ED000521EFDD19C620A46521EFDD19C610A46EB
:101EE000521EFDD19CF81B60374656B19C620A46D3
:101EF000521EFDD19C610A46521EFDD1761E002E57
:101F0000F4D180269E629C620A46521EFDD19C61DD
:101F10000A46521EFDD19C620A46521EFDD19C61AA
:101F20000A46521EFDD19C620A46521EFDD19C619A
:101F30000A46521EFDD14FF01F08C20701D09E6114
:101F400000E09E629C620A46521EFDD19C610A46D8
:101F5000521EFDD14008A8F10108B8F1000FECD1E4
:101F60009CF81A20D21B521E2AB3C00701D09E61D2
:101F700000E09E629C620846401EFDD11F469C61A7
:101F80000846401EFDD1521E52B1BC620846401E9A
:101F9000FDD1BC610846401EFDD1521E002AF4D17D
:101FA000BD612246BC620846401EFDD1BA610846AA
:101FB000401EFDD10FE09D61C00701D09E6100E091
:101FC0009E6222461F469C620846401EFDD1BA61B1
:101FD0000846401EFDD19C620846401EFDD19C6112
:101FE0000846401EFDD19D629C620846401EFDD100
:101FF0009C61491EFDD19E61BDE8F0815013002017
:10200000014802F01BBB0000A80200207CB50121A2
:10201000194800F09BFF18480121401C00F096FF72
:10202000684601F0E9F80225009500208DF80600C9
:102030004FF090466946304601F0E8F801240094DC
:102040006946304601F0E2F800956946304601F0F5
:10205000DDF800946946304601F0D8F880210091FF
:102060006946304601F0D2F8402100916946304679
:1020700001F0CCF87CBD000011001400F0B500F0B8
:102080003F03002B00D14023DFF88CC000064FF047
:1020900002064FF090451AD41CE00027082010E0FB
:1020A000AE62DCF804100C46641EFDD12C69C4F34A
:1020B0000004AE61491EFDD1790841EAC417401EF3
:1020C0005B1E08B1002BEBD1C74002F8017B002B4F
:1020D000E3D1F0BD10484FF0010C476818E011F84B
:1020E000012B082411E0D00702D0C5F818C001E088
:1020F000C5F828C0AE623846401EFDD1AE613846F4
:10210000401EFDD15208641E5B1E0CB1002BEAD1AB
:10211000002BE4D1F0BD000050130020034A527898
:10212000002A01D000F004B800F042B9501300209A
:102130002DE9F0434FF090474FF00108C7F81880A1
:102140004FF0020CC7F828C0C7F818C0C20702D069
:10215000C7F8188001E0C7F82880C7F828C0C7F87A
:1021600018C003464208D40702D0C7F8188001E01F
:10217000C7F82880C7F828C0C7F818C013448208D9
:10218000D40702D0C7F8188001E0C7F82880C7F844
:1021900028C0C7F818C01344C208D40702D0C7F833
:1021A000188001E0C7F82880C7F828C0C7F818C011
:1021B0001A44D20702D0C7F8188001E0C7F8288077
:1021C000C7F828C0C7F818C0C7F82880C7F828C0C3
:1021D000C7F818C0C7F81880C7F828C0C7F818C0D3
:1021E0003A6822F003023A60DFF8BC9199F818309F
:1021F0001C4633B1C7F828C0C7F818C05B1E002BB7
:10220000F8D1C7F828C03A69C2F30002C7F818C06D
:10221000C7F828C03B69C3F30003C7F818C042EAF7
:102220004303C7F828C03A69C2F30002C7F818C0D0
:1022300043EA8202012A17D0022A7CD0042A7AD0EB
:10224000213434B1C7F828C0C7F818C0641E002C68
:10225000F8D1C7F82880386840F001003860C7F826
:102260001880D0B2BDE8F08383072CD50026002467
:102270002023C7F828C03D69C5F30005C7F818C07A
:102280002C44760846EAC5765B1E002BF1D1C7F8D0
:1022900028C03B69C7F818C05C40E30700D008229B
:1022A00001B10E6099F8181031B1C7F828C0C7F80D
:1022B00018C0491E0029F8D1C7F82880396841F0B4
:1022C000010139602BE034B1C7F828C0C7F818C045
:1022D000641E002CF8D1C7F828803B6843F0010346
:1022E0003B60096800242023CD0702D0C7F818807E
:1022F00001E0C7F82880C7F828C0C7F818C00C4408
:1023000049085B1E002BEFD1E10702D0C7F8188007
:1023100001E0C7F82880C7F828C0C7F818C0000631
:1023200003D522484068C9F8080099F80C0050B15C
:10233000C7F8288000E00AE0C7F828C0C7F818C02E
:10234000401E0028F6D1C7F81880D0B28AE799F865
:1023500019304BB1810707D52121C7F828C0C7F82C
:1023600018C0491E0029F8D134B1C7F828C0C7F8F1
:1023700018C0641E002CF8D1C7F82880396841F0D5
:10238000010139605BB1800709D4C7F8288021209A
:10239000C7F828C0C7F818C0401E0028F8D1C7F8F1
:1023A0001880D0B25EE7000050130020001000E05B
:1023B0002DE9F04F00244FF090474FF00108C7F887
:1023C00018804FF0020CC7F828C0DFF88C93D9F8BA
:1023D000042013465B1EFDD1C7F818C013465B1ED0
:1023E000FDD1C30702D0C7F8188001E0C7F82880E4
:1023F000C7F828C013465B1EFDD1C7F818C01346A6
:102400005B1EFDD125184408E30702D0C7F81880E9
:1024100001E0C7F82880C7F828C013465B1EFDD12D
:10242000C7F818C013465B1EFDD125448408E30796
:1024300002D0C7F8188001E0C7F82880C7F828C084
:1024400013465B1EFDD1C7F818C013465B1EFDD1B5
:102450002544C408E30702D0C7F8188001E0C7F894
:102460002880C7F828C013465B1EFDD1C7F818C0E6
:1024700013465B1EFDD12B19DB0702D0C7F818806D
:1024800001E0C7F82880C7F828C013465B1EFDD1BD
:10249000C7F818C013465B1EFDD1C7F82880C7F8DF
:1024A00028C013465B1EFDD1C7F818C013465B1E3B
:1024B000FDD1C7F81880C7F828C013465B1EFDD1B0
:1024C000C7F818C013465B1EFDD13B6823F0030319
:1024D0003B6099F81840254664B1C7F828C01346F8
:1024E0005B1EFDD1C7F818C013465B1EFDD1641EEC
:1024F000002CF2D1C7F828C013465B1EFDD13B6902
:10250000C3F30004C7F818C013465B1EFDD1C7F81B
:1025100028C013465B1EFDD13B69C3F30006C7F814
:1025200018C013465B1EFDD144EA4604C7F828C014
:1025300013465B1EFDD13B69C3F30006C7F818C004
:1025400013465B1EFDD144EA8604012C1DD0022CEB
:102550007ED0042C7CD0213565B1C7F828C0104648
:10256000401EFDD1C7F818C01046401EFDD16D1E9B
:10257000002DF2D1C7F82880386840F0010038609B
:10258000C7F81880E0B2BDE8F08F830748D54FF058
:10259000000A00252023C7F828C01646761EFDD164
:1025A0003E69C6F30006C7F818C09346BBF1010B9D
:1025B000FCD135444FEA5A0A4AEAC67A5B1E002B20
:1025C000E9D13B46C7F828C0CE461646761EFDD157
:1025D0001E69C6F30006E346C3F818C0521EFDD1BB
:1025E0007540EA0700D0082409B1C1F800A09EF8A0
:1025F000182072B1DEF80450C3F828B02946491EED
:10260000FDD1C3F818B02946491EFDD1521E002A3B
:10261000F2D1C3F82880196841F0010119603FE048
:1026200065B1C7F828C013465B1EFDD1C7F818C0B6
:1026300013465B1EFDD16D1E002DF2D1C7F8288018
:102640003B6843F001033B6009680026202500E059
:1026500044E0CB0702D0C7F8188001E0C7F8288013
:10266000C7F828C013465B1EFDD1C7F818C0134633
:102670005B1EFDD10E4449086D1E002DE7D1F10708
:1026800002D0C7F8188001E0C7F8288063463D46AD
:10269000C7F828C01146491EFDD1AB61521EFDD1BD
:1026A000000603D52D484068C9F8080099F80C10B9
:1026B00081B1C7F82880D9F80420C7F828C010468F
:1026C000401EFDD1C7F818C01046401EFDD1491E5E
:1026D0000029F2D1C7F81880E0B254E799F8193010
:1026E0007BB181070DD52126C7F828C01146491EA8
:1026F000FDD1C7F818C01146491EFDD1761E002E27
:10270000F2D165B1C7F828C01146491EFDD1C7F8FE
:1027100018C01146491EFDD16D1E002DF2D1C7F81B
:102720002880396841F0010139608BB180070FD4EE
:10273000C7F828802121C7F828C01046401EFDD1C7
:10274000C7F818C01046401EFDD1491E0029F2D11D
:10275000C7F81880E0B216E750130020001000E020
:10276000F0B500220023104C01274FF090464FF0A7
:10277000020C656814E013B911F8012B0823D40783
:1027800001D0B76100E0B762C6F828C02C46641ECD
:10279000FDD1C6F818C02C46641EFDD152085B1E40
:1027A000401E441CE7D1F0BD5013002002480168D0
:1027B000491C0160704700000000002011480168BA
:1027C00041F00101016001688907FCD5416821F0F1
:1027D00003014160416811F00C0FFBD101680A4A06
:1027E000114001600021416041F61071C1624FF457
:1027F000801101634FF41F01816004494FF00060B4
:102800000860704700100240FFFFF2FE08ED00E094
:1028100008B50121134800F099FB0121124800F08E
:1028200095FB012000F024FC41F62C7000F094F997
:102830004FF4FA5000F096F941F6547000F098F910
:102840000121022000F074F908480090084B002292
:102850000121084801F0AEFE07494FF00040086032
:1028600008BD00000C0014001B001C0058010020D3
:102870004C020020A802002000E100E02DE9F04316
:1028800087B00121484800F061FB0121474800F072
:102890005DFB01214FF4A01000F058FB05A800F0EB
:1028A000ABFC02258DF81A500C2005904FF0904497
:1028B00005A9204600F0AAFC01220221204600F0D2
:1028C000D7FC01220321204600F0D2FCDFF8E08093
:1028D00035220121404600F0E3FB1020ADF808004E
:1028E0003448019000248DF80F4001268DF80D60CA
:1028F000314F00978DF80E408DF80C40ADF80A402E
:102900008DF811508DF81040DFF8A490694609F158
:102910000809484600F006FC0121484600F0B6FBD5
:1029200034220221404600F0BBFBADF808402148AC
:10293000803801908DF80F408DF80D6000978DF86C
:102940000E408DF80C408020ADF80A008DF8115033
:102950008DF81060164C69461C34204600F0E2FBEE
:102960000121204600F092FB3C1F002301224FF47E
:10297000E131204600F07CFD0121204600F06DFD94
:102980000121204600F064FD0121204600F0E0FD19
:102990000121204600F0D7FD0121204600F062FD14
:1029A00007B0BDE8F08300001100140011001C0006
:1029B00000000240101300200444004070B58179EB
:1029C00007291CD008291CD001224179D9B101293D
:1029D0001BD002291BD000240179D1B101291AD0C2
:1029E00002291AD0002372B601680D4D284600F066
:1029F0003FFD2146284600F085FD62B670BD0022ED
:102A0000E3E70122E1E70024E6E70224E4E701240A
:102A1000E2E70023E7E70323E5E70223E3E700001B
:102A2000004400402DE9F0473B4DB5F84E083B4FC0
:102A30004FF00008002842D0394800F02CFBC0F1CC
:102A40008004384EDFF8E0907068211A402906D2E1
:102A5000844228D0D9F800103268914223D08442B1
:102A600000D28024211A402901D900F14004211A02
:102A7000A5F84C18A5F84E88B5F84C282B49014408
:102A80002A4888388246FDF728FCB5F84C3852466B
:102A90008321381D01F085FB04F07F007060D9F8B8
:102AA000000030600BE0B5F84C08402807D1A5F8CD
:102AB0004C8800231A468321381D01F072FBB5F8BB
:102AC0009008002826D0164C143C204600F0E3FA6B
:102AD00000281FD1B5F89028144944390E4601F159
:102AE000C400FDF73FFC0021204600F0CFFAB5F806
:102AF0009018204600F0D2FA0121204600F0C6FAD4
:102B0000A5F89088402303213246381DBDE8F047E0
:102B100001F0F5BABDE8F087FC090020A80200200A
:102B20001C000240980200200000002090120020AB
:102B3000084A002808D0106840F0020010601068B1
:102B400061F3000010607047106820F00200106010
:102B5000F5E70000046C0040014908607047000080
:102B60000C6C00400149086070470000106C004088
:102B70000149086070470000146C004010B504461D
:102B80008121204601F090FA0121204601F08CFAC3
:102B90008221204601F088FA8321204601F084FA40
:102BA0000321204601F080FA002010BD10B5044832
:102BB0004078202802D10348FFF700FF002010BD15
:102BC00088020020900200200020704700207047FB
:102BD00010B541F08000812802D0832807D102E09F
:102BE000FEF702FD03E003490120A1F84E08002092
:102BF00010BD0000FC09002010B50446402302224D
:102C00008121204601F061FA402302220121204661
:102C100001F05BFA4023114A0121204601F06FFACE
:102C2000082303228221204601F04FFA402302228A
:102C30008321204601F049FA402302220321204645
:102C400001F043FA4023064A0321204601F057FAD7
:102C500004490120A1F84E08002010BDAC05002059
:102C60004C120020FC09002070B50C460546214698
:102C7000284601F0D5FB0146012C02D0032C0DD1D2
:102C800009E00748FEF782FC4023054A0121284657
:102C900001F035FA02E00348A0F89018002070BD5A
:102CA000AC050020FC09002010B52C4A0B685361CC
:102CB0004B6893610A7812F0600205D0202A22D076
:102CC00001F0C8F8002010BD4A78062AFAD14A88D7
:102CD0002223B3EB122F09D1214AC988527E8A429E
:102CE00000D30A461F4901F0A1F8EBE72123B3EB1B
:102CF000122FE7D1CA88092A00D9092218491231AE
:102D000001F094F8DEE74A780B2A0FD008DC012A9C
:102D10000CD0032A0AD0092A08D00A2A06D1D1E702
:102D2000202A0ED0212A04D0222A12D001F092F8B3
:102D3000C8E7CA88072A00D307220B4901F076F8B2
:102D4000C0E7CA88072A00D30722074901F05AF8CA
:102D5000B8E748880549A1F80808B3E774020020DD
:102D6000380000200400002090020020FC09002010
:102D70000020704702494A6860F307124A607047B2
:102D80000010024002494A6860F30A224A60704714
:102D90000010024002494A6860F3CD224A60704741
:102DA00000100240104A052808D2DFE800F00308AE
:102DB0000D121700106861F3000010607047106872
:102DC00061F3104010607047106861F31860106084
:102DD0007047106A61F3000010627047506A61F337
:102DE0000000506270470000001002402DE9F041E1
:102DF000044600F035F901463C483D4D61B30129D8
:102E000035D0022935D020606868C0F303103949F5
:102E1000095C2068C84060606968C1F30221354AD6
:102E2000183A515C20FA01F1E1606968C1F3C221EE
:102E30000832515CC840A0606968C1F300716A68DB
:102E4000C2F3813242EA81012A4A083A515CB0FB5E
:102E5000F1F02061BDE8F081696D890505D5296B28
:102E6000890102D524482060CEE72060CCE72060AD
:102E7000CAE76968C1F30041EA6A002A1DDB686895
:102E8000C0F383406A68C2F3417252B90F2808D078
:102E9000801C51B1696889030BD5184948432060EB
:102EA000B2E700EB0210401CF3E7144948432060EE
:102EB000AAE70E4948432060A6E7EA6AC2F3031274
:102EC000EB6AC3F30823EE6A06F007060B4F59B10D
:102ED0006968890300D53846A0FB0301B24000238E
:102EE000FDF784F920608FE73846F5E700127A0095
:102EF00000100240A44A0008006CDC0200093D00FA
:102F00000146002001F01F0301229A40034B03EB0E
:102F1000114109688A4300D1012070470010024026
:102F200002490A6B60F359620A637047001002405D
:102F300000B503460120FFF7F3FF0348416D63F33B
:102F40004921416500BD00000010024010B500F0AD
:102F50001F030122064C9A4004EB1040012903D0C4
:102F600001689143016010BD01681143016010BD0B
:102F70000010024030B50023264A274C002815D007
:102F8000656845F480356560012814D0606840F4B8
:102F9000003060602148224D1044A8422CD32148C3
:102FA000214D1044A8420CD2012325E0606820F492
:102FB00080306060EEE71D4A606820F40030606099
:102FC000E8E71B481B4D1044A84201D2022313E03E
:102FD00019481A4D1044A84201D203230CE01848A6
:102FE000184D1044A84201D2042305E016481044AD
:102FF000164A904200D20523606861F395406060F4
:103000006068090961F35E706060E06A63F31A60EA
:10301000E06230BD00093D00001002409F7DC4FF0A
:10302000DFC810007FA7B0FF8F05100000127A00E4
:103030006BCA88FF7BE50700EFE480FF0FA13F002C
:10304000D79411FF076C4F00CF28C2FEA7129F0034
:1030500002494A6860F301024A607047001002406A
:1030600002484068C0F38100704700000010024031
:1030700010B50446012C01D1FFF75AFF0248416DFB
:1030800064F30821416510BD00100240026861F33D
:10309000000202607047406880B27047416070472C
:1030A000D0F8A430DB0105D4D0F8A43043F080730D
:1030B000C0F8A430012911D0022915D0032919D054
:1030C00004291DD0052921D0062925D0072904D19E
:1030D00050F8A41F62F317410160704750F8A01F19
:1030E00062F307010160704750F8A01F62F30F21DF
:1030F0000160704750F8A01F62F3174101607047EC
:1031000050F8A01F62F31F610160704750F8A41FC0
:1031100062F307010160704750F8A41F62F30F21AA
:103120000160704702684BF6EF731A400260026854
:103130000B891A4302604B7C026863F30D32026014
:10314000CB7B026863F38B2202608B7B026863F3A4
:10315000092202604B7B026863F3C71202600B7B9B
:10316000026863F3861202600B7C026863F3451207
:1031700002604A8942600A6882604968C16070479B
:10318000004870471001002000487047E000002010
:1031900000487047D8000020002070470048704762
:1031A0000801002000487047E800002000487047F0
:1031B000F800002010B50B480168001D0468001DD0
:1031C00000680844002809D00822074900F068F880
:1031D000054904221031204600F062F802481A38EE
:1031E00010BD0000E8F7FF1F1A01002000487047DB
:1031F000F0000020816170474FF6FF7101600021EF
:103200008171017141710121C1717047F0B50022D6
:103210000B889BB229E0DC0724D006685400032504
:10322000A540AE4306608E790768A6403E4306601F
:10323000466801279740BE43466046680F7997402D
:103240003E4346608668AE438660CE798768A64076
:103250003E438660C668AE43C6604D79A540C468EB
:103260002543C5605B08521C92B2002BD3D1F0BD40
:1032700010B54B07DB0E9A40CC084FF00F0101FA56
:1032800003F106D0436A8B434362416A11434162B2
:1032900010BD036A8B430362016A1143016210BDD2
:1032A000F0B500230A2530263727002411E0B5EBBE
:1032B000107F04D906EB107C01F813C003E007EB84
:1032C000107C01F813C001EB430C8CF801400001A5
:1032D0005B1C9342EBDBF0BD00F024F8FEF7C0F876
:1032E000FFF7CCFAFFF794FA0C484FF47A710068B4
:1032F000B0FBF1F0401EB0F1807F09D24FF0E02129
:103300004861074AF020107000208861072008619A
:1033100001F0ACF8FFF786FBFAE70000A4020020FA
:1033200023ED00E010B512494FF4A9700860172191
:103330000020FFF71FFE01210220FFF733FD1920B7
:10334000FFF7DEFD0128FAD10020FFF713FD002072
:10335000FFF718FD0020FFF71DFD0220FFF778FEA4
:10336000FFF77EFE0228FBD1BDE8104000F002B856
:10337000002002402DE9F041FFF772FE2E492F4D4B
:103380002F4C70B1012817D0022817D0216068682F
:10339000C0F303102B49085C2168C1402160BDE8DF
:1033A000F081686D800505D5286B800102D526481F
:1033B0002060ECE72160EAE72160E8E76868C0F395
:1033C0000043E86A00281DDB6868C0F38340696831
:1033D000C1F3417151B90F2808D0801C53B16968FD
:1033E00089030BD5194948432060D0E700EB011051
:1033F000401CF3E7154948432060C8E70E4948439D
:103400002060C4E7E86AC0F30312E86AC0F308204A
:10341000EE6A06F007060D4F5BB16B689B0300D5A3
:103420003946A1FB0001B2400023FCF7DFFE20601B
:10343000ADE73946F5E7000000127A0000100240BF
:10344000A4020020B44A0008006CDC0200093D0020
:10345000426961F3861242617047426961F3C712A3
:1034600042617047C26861F34D32C260704700002C
:10347000F0B585B004460F4615461E466846FFF770
:10348000B5FC1F48844201D1029800E0039800EB8C
:1034900080004000B0FBF7F00A21B0FBF1F201FB25
:1034A0001202052A02D2B0FBF1F002E0B0FBF1F00B
:1034B000401CA16860F30F01A1607DB1012D16D001
:1034C000E06820F08050E060E06840F48050E06008
:1034D000206966F30D30206105B0F0BDE06840F072
:1034E0008050E060E06820F48050E060F0E7E06841
:1034F00020F08050E060E06820F48050E060E7E772
:103500000038014000290CD0012913D0022907D12D
:10351000C16841F40071C160C16841F48061C1605B
:103520007047C16821F40071C160C16821F48061F5
:10353000C1607047C16821F40071C160C16841F485
:103540008061C1607047C26861F38202C2607047E7
:10355000C26861F3C302C2607047D0F8041821F05A
:103560000201C0F80418704700F53D700170417207
:103570000022C2724273402282800822C2704FF43D
:10358000A072C280A0F53D70012902D1022180F80D
:10359000FC12012180F8011300207047D0F80418B4
:1035A00041F00201C0F804187047D0F800196FF319
:1035B0000A01C0F80019D0F8041821F48071C0F88D
:1035C0000418704700F53060002101610169012293
:1035D00062F3DC41016101696FF31201183101618D
:1035E000016941F0C041016170478B780A78002B76
:1035F00000EB421214D0D2F8003B23F40013C2F8BF
:10360000003BCA78032A01D0022A08D1097800EBCE
:103610004110D0F8001B41F08051C0F8001B7047EA
:10362000D2F8003923F40013C2F80039CA78032A0B
:1036300001D0022AF3D1097800EB4110D0F800192B
:1036400041F08051C0F80019704710B50B788C78A4
:1036500001229A40002C0FD0D0F81C3823EA0242F5
:10366000C0F81C28097800EB4110D0F8001B21F4A9
:103670000041C0F8001B10BDD0F81C389343C0F8BF
:103680001C38097800EB4110D0F8001921F40041F2
:10369000C0F8001910BD10B50021002301EB410254
:1036A00002EBC10200EB82021173517393735361F9
:1036B00013625362491CC9B20829EFD300210124C7
:1036C00001EB410202EBC10200EB820202F5B6728D
:1036D000117051709470936053619361491CC9B229
:1036E0000829EDD310BD00EB4110C0F80829704740
:1036F000D0F81028D0F83438CB4003F0010342EA68
:10370000C31200EB4110D0F808091040704730B5E3
:1037100000220B78002B0ED18B68402B0BD0202B76
:1037200004D0102B04D0082B04D004E0012202E0C6
:10373000022200E003220D788C780123AB406CB3A9
:10374000D0F81C4844EA0343C0F81C380B78F3B3A4
:1037500000EB43120C89D2F8003B64F30A03C2F871
:10376000003B0A78CC7800EB4212D2F8003B64F3BD
:103770009343C2F8003B0A7800EB4212D2F8003BB8
:1037800043F08053C2F8003B097800EB4110D0F8B9
:10379000001B41F40041C0F8001B30BDD0F81C48AC
:1037A0001C43C0F81C480B7883B300EB43120C8910
:1037B000D2F8003964F30A03C2F800390A78CC78E9
:1037C00000EB4212D2F8003964F3934300E025E0A5
:1037D000C2F800390A7800EB4213D3F8004962F3CB
:1037E0009954C3F800490A7800EB4212D2F8003924
:1037F00043F08053C2F80039097800EB4110D0F84B
:10380000001941F40041C0F8001930BDFFE7D0F8BD
:10381000003962F30A03C0F80039CFE7D0F8003B63
:1038200062F30A03C0F8003B9BE700EB4110C0F8CD
:10383000082B704700EB4111D1F8081BD0F8140891
:10384000084070478B780A78002B00EB421213D0A7
:10385000D2F8003B002B05DBD2F8003B23F080437D
:10386000C2F8003B097800EB4110D0F8001B41F48E
:103870000011C0F8001B7047D2F80039002B05DB9F
:10388000D2F8003923F08043C2F80039097800EB00
:103890004110D0F8001941F40011C0F80019704728
:1038A0000021026942F010020261054A03E00B4662
:1038B000491C934202D80369DB06F8D47047000024
:1038C000400D03000022036961F38A13036101695B
:1038D00041F020010161054903E01346521C8B426F
:1038E00002D803699B06F8D470470000400D03001E
:1038F000D0F81818D0F81C0889B208407047D0F8E2
:103900001818D0F81C080840000C70474161704737
:10391000416980690840704710B50446204600F0B0
:103920000FF8A06B40F48030A06310BD012A03D0D3
:1039300082698A438261704782690A438261704763
:1039400000210C4A03E00B46491C934202D803694C
:10395000002BF8DA0021036943F00103036103E05F
:103960000B46491C934202D80369DB07F8D10120BA
:1039700070470000400D03004FF0A0407047002941
:1039800007D1C26822F00052C260C26842F0804291
:10399000C260012907D1C26822F08042C260C268B9
:1039A00042F00052C260022907D1C16821F0804173
:1039B000C160C16821F00051C1607047816821F089
:1039C000010181607047816841F0010181607047A9
:1039D000D0F8001E21F00101C0F8001E704710B59C
:1039E000DB1C9B08002200F5805002E0046810C137
:1039F000521C9A42FAD310BDD0F8002861F30A1283
:103A0000C0F8002870474162704730B50023446A0F
:103A1000002904D0856A04EB1544491E0BE044EAF2
:103A20000241816230BD00EB8305D5F8045104EBFF
:103A300015445B1CDBB28B42F5DB00EB810044EAF2
:103A40000242C0F8042130BDD0F8001E41F001014F
:103A5000C0F8001E7047D0F8080800F00100704759
:103A60002DE9F0470E46076806EB460101EBC6015B
:103A700000EB81040C34D4E90601451AA068A84281
:103A800000D20546E81C4FEA900907EB461813E000
:103A9000D51AA268AA4200D21546E81C4FEA90093E
:103AA000ABB2B2B23846616900F01CF860692844D4
:103AB0006061E0692844E061D8F8180980B248459F
:103AC00005D9D4E90623934201D2002AE0D1002D82
:103AD00006D1D7F834080121B1408843C7F834082B
:103AE000BDE8F08710B5DB1C9C08002300EB02301A
:103AF00000F5805002E004C902605B1CA342FAD3C7
:103B000010BD70B50446002504F5337194F8E40245
:103B1000022806D0032804D0204600F09BF928464E
:103B200070BD48880128FAD1002084F8E702D4F853
:103B3000EC0220F00200C4F8EC02606882682046C3
:103B40009047204600F07EF9E9E710B502680B06C1
:103B500001F07F0101EB410404EBC10100EB8104A2
:103B600001D50C3401E004F5B67421461046FFF788
:103B70003CFD0020607310BD0068FFF7EEBC70B51F
:103B8000044601F07F0000EB400202EBC00004EBB2
:103B900080020C3200290BD060684269002A45D0AF
:103BA00094F8E402032841D12046BDE87040104754
:103BB00094F8E002022839D1516A906881420DD907
:103BC000081A50629168884200D3084683B252694D
:103BD0002046BDE87040002100F0E3BA116A81423E
:103BE00016D1916A814213D3B4F8E20281420FD216
:103BF0000025156200231A461946204600F0D1FA26
:103C000029462046BDE8704000231A4600F077BAE6
:103C10006068C16829B194F8E402032801D1204604
:103C200088472046BDE8704000F0F8B870BD00003D
:103C30002DE9F041064631600C4604F5006501208F
:103C400086F8E402002786F8E6727260B3603046B8
:103C500000F05AF93046FFF71EFD2046FFF7AEFE92
:103C60002046FFF759FE00212046FFF788FE306806
:103C7000FFF7AEFE286820F4C0502860286840F0A6
:103C80000300286010212046FFF71CFE2046FFF7A6
:103C900007FE781EA861EF612F616F61002004EBC1
:103CA0008001C1F80471401C0828F8D3304600F0A8
:103CB000F3FA0020FF2104EB401202F510621368B2
:103CC000002B09DA1760136843F080431360136810
:103CD00043F00063136000E0176017619160401CBF
:103CE0000828E8D3002004EB401202F53062136884
:103CF000002B09DA1760136843F0804313601368E0
:103D000043F00063136000E0176017619160401C8E
:103D10000828E8D3286940F480702861A7616FF013
:103D2000804060610548A0613046FFF725FF2046CE
:103D3000FFF749FE0020BDE8F08100001C383C8000
:103D400010B5044601F07F0000EB400202EBC0001A
:103D500004EB800202F5B67200290BD0606882691C
:103D6000002A26D094F8E402032822D12046BDE898
:103D70001040104794F8E00203281AD19368506A63
:103D800098420CD9C01A50629368984200D31846E2
:103D900083B252692046BDE8104000F0B0B96068B7
:103DA000016909B1204688472046BDE8104000F06F
:103DB00049B810BD10B5044604F5357104F53370EB
:103DC00000F012FE012084F8E002B4F8D202A4F858
:103DD000E20294F8CC0210F01F0008D001280BD0AA
:103DE00002280ED12046BDE8104000F090B82046D1
:103DF000BDE8104000F03AB82046BDE8104000F0A1
:103E000003BC10BD00F5B6739A625A62032380F8B2
:103E1000E03213460A46002100F071B9052180F80E
:103E2000E01200231A46194600F069B900F10C03AC
:103E30009A625A62022380F8E03213460A46002151
:103E400000F0AFB9042180F8E01200231A461946A9
:103E500000F0A7B910B504460021204600F0ADFDE2
:103E60002046BDE81040802100F0A7BD10B5002419
:103E700000F533710A78C2F34112022A0CD0012AEC
:103E800021D090F8CD120A2937D2DFE801F02124A1
:103E90003627362A2D3630334A78342A02D10A7929
:103EA000072A03D0FFF7D6FF204610BD154AC98860
:103EB000137A527A43EA02228A4200D90A46114909
:103EC000FFF7B4FFF0E7426892689047204610BDC4
:103ED00000F0B1FA13E0FFF714FE10E000F05AFD15
:103EE0000DE000F0DDFC0AE000F02DFA07E000F044
:103EF00007FA04E000F0F8FC01E0FFF7ABFF204612
:103F000010BD0000A40100200068FFF747BB2DE9A9
:103F1000F0410546002705F5337634793078C0F353
:103F20004110012804D168683146826828469047CC
:103F3000707848B101283CD003285FD02846FFF7AD
:103F400089FF3846BDE8F08195F8E402022805D0E3
:103F500003280AD02846FFF77DFFF2E76006F0D07D
:103F60002146284600F029FDEBE7200609D504F09C
:103F70007F0000EB400101EBC00005EB80010C313C
:103F800009E004F07F0000EB400101EBC00005EB0D
:103F9000800101F5B671487B012807D00020086137
:103FA000022210312846FFF741FFCAE701200861CD
:103FB000F6E795F8E402022805D003280CD028463D
:103FC000FFF748FFBDE7002CBBD0802CB9D02146BD
:103FD000284600F0F2FCB4E770880028B1D16006F2
:103FE00008D021462846FFF7B0FD68683146826850
:103FF000284690472846FFF725FFA2E795F8E402F8
:10400000022805D003280CD02846FFF723FF98E7A5
:10401000002C96D0802C94D02146284600F0CDFC70
:104020008FE7708830B92CB1802C03D02146284608
:1040300000F0C3FC686831468268284690472846ED
:10404000FFF700FF7DE710B504462068FFF703FD8A
:10405000012804D12068BDE81040FFF7F5BC10BD71
:1040600070B5044625682846FFF79FFAE86820F4F3
:10407000705000F5A050E860002240231146204611
:1040800000F023F8402300228021204600F01DF894
:10409000012084F8E40260684168002903D02046CA
:1040A000BDE87040084770BD0A0601F07F0101EBD2
:1040B000410303EBC10100EB810101D50C3101E0AB
:1040C00001F5B6710068FFF7C0BAF0B404680D06D8
:1040D00001F07F0101EB410606EBC10100EB81011C
:1040E00004D401F5B6710120887002E00C31002083
:1040F00088708B60CA702046F0BCFFF708BB70B5B3
:10410000056801F07F0404EB440606EBC40400EBF1
:10411000840404F5B674207805EB401000F5306097
:1041200005F500656261A3610022E2614A0601D1E2
:10413000A268A261A2699AB1490611D0A1680A4495
:10414000521EB2FBF1F20369514361F312030361A2
:10415000016962F3DC410161E17801290BD012E0D1
:10416000A268016962F3120101610169012262F32F
:10417000DC410161F0E7A968090AC9070CD00168B0
:1041800041F080510160016841F080610160016887
:1041900041F00041016070BD016841F000510160D3
:1041A000F1E7F0B40546286801F07F0404EB44060B
:1041B00006EBC40405EB84050C352C7800EB4414A5
:1041C00004F5106400F500666A61AB610022EA61E3
:1041D000AA690123002A12D0490619D0A9685718E4
:1041E0007F1EB7FBF1F1276962F31207276122698D
:1041F00061F3DC422261E978012919D01EE02169CE
:1042000063F3DC41216121696FF31201216115E043
:10421000A9688A4200D9A961AA69216962F31201D9
:104220002161216963F3DC412161A969296205E00B
:10423000216921F0C04101F100512161E978012992
:1042400006D0A96921B1716B2A7893401943716333
:10425000E978012907D1B168090AC90715D0216891
:1042600041F080512160216841F080612160216826
:1042700041F000412160E97801290BD1298B2A788E
:104280008BB26969F0BCFFF72DBC216841F0005189
:104290002160E8E7F0BC704710B50468B4F1A04FA6
:1042A0002DD180212046FFF7AEFB182200212046A9
:1042B000FFF7ABFB142201212046FFF7A6FB1422D7
:1042C00002212046FFF7A1FB142203212046FFF71D
:1042D0009CFB142204212046FFF797FB14220521A2
:1042E0002046FFF792FB142206212046FFF78DFBA4
:1042F00020461422BDE810400721FFF786BB10BD01
:1043000010B5002400F53371C988012902D0FFF7E8
:10431000A1FD07E090F8E412022905D003290CD092
:10432000FFF798FD204610BD002180F8E812012219
:1043300000F53A71FFF77AFDF4E7012200F2E92176
:10434000FFF774FDEEE770B5054600260024B5F8CA
:10435000CE12080A06284CD006DC01280DD002280F
:1043600010D0032804D116E0072854D00F280ED00F
:104370002846FFF76FFD304670BDA868006880478B
:10438000044639E0A86880688047044634E0FEF7B8
:10439000F7FE044630E0C8B2062822D2DFE800F07B
:1043A00003080D12171CA86800698047044623E023
:1043B000A8684069804704461EE0A8688069804775
:1043C000044619E0A868C0698047044614E0A8685C
:1043D000406A804704460FE0A868006A80470446A8
:1043E0000AE0686805F533718268284690473046D0
:1043F00070BD2846FFF72EFD5CB122884AB1B5F8A2
:10440000D20230B1824200D3024628466168FFF7EB
:104410000DFD304670BD2846FFF71CFD304670BDCF
:1044200001F07F0101EB410202EBC10100EB8100D1
:10443000D0F88801704710B5002490F8E4120229E2
:1044400005D0032903D0FFF705FD204610BD90F8E5
:10445000E71229B1D0F8EC1241F00201C0F8EC12D9
:10446000022200F53B71FFF7E1FCEEE770B5214C4D
:10447000A1686068814201D16078B8B31E4DE068E0
:10448000A26805EB8011A5F5007000EB8210FCF727
:10449000D9FBE26805F5007121F81200A068401C04
:1044A000082800D10020A060A268636800209A421A
:1044B00000D1607022785AB12070E06831F8103075
:1044C000E068812105EB80120C48FFF76AFE0BE0E3
:1044D000E068401C082800D10020E060E068216905
:1044E000884201D10120A070012070BDFFE70020AB
:1044F000FBE7000074020020EC070020AC02002063
:1045000041680A6A002A01D00521104770474168B6
:104510000A6A002A01D00621104770472DE9F041B0
:104520008046D8F8007000253846FFF7E1F90646C6
:104530003CE0F00738D029463846FFF7D9F8044662
:10454000E0070FD0D7F834080121A9408843C7F805
:104550003408012229463846FFF7C5F8E9B240463B
:10456000FFF70DFB200704D5082229463846FFF740
:10457000BAF8E00604D5102229463846FFF7B3F80A
:10458000600604D5402229463846FFF7ACF8A0075C
:1045900004D5022229463846FFF7A5F8200603D5A0
:1045A00029464046FFF75CFA6D1C7608002EC0D104
:1045B000BDE8F0812DE9F8430446089F884610467F
:1045C0001E460025FFF7D8F9206041462046FEF739
:1045D000CBFF94F8FF0220B12068816B41F4801179
:1045E000816394F8010320B12068816B41F40011CC
:1045F0008163CDF800803B463246201D2168FFF7DD
:1046000017FB2846BDE8F88370B50446002604F57C
:1046100033710D4694F8E402032804D02046FFF7D6
:1046200019FC304670BD6068826820469047E88873
:104630000028F6D12046FFF705FCF2E770B50568C3
:10464000061D2846FFF764F904466869C0075BD178
:10465000A00703D502212846FFF758F9600302D5C9
:104660003046FFF75BFF200302D5304600F04DF8DF
:10467000E00407D5304600F08AF84FF48051284610
:10468000FFF744F9200706D5304600F0C1F90821AC
:104690002846FFF73BF9A00407D53046FFF7E0FCBA
:1046A0004FF400512846FFF731F9E00602D53046B5
:1046B00000F0BCF8E00207D53046FFF721FF4FF4C9
:1046C00080112846FFF722F9A00207D53046FFF7F0
:1046D0001EFF4FF400112846FFF718F9002C07DAE7
:1046E000304600F0B6F94FF000412846FFF70EF9CA
:1046F000200509D5304600F091F92846BDE8704004
:104700004FF40061FFF702B970BD2DE9F041074693
:10471000D7F8008000244046FFF7F1F8054632E064
:10472000E8072ED021464046FFF784F80646F007FA
:1047300008D0012221464046FFF777F8E1B238461B
:10474000FFF7FEFA300715D5082221464046FFF74D
:104750006CF8E1B23846FFF72DFB97F8E61249B145
:104760003868D0F8002861F30A12C0F80028002049
:1047700087F8E602F00604D5102221464046FFF7EE
:1047800054F8641C6D08002DCAD1BDE8F0812DE9F4
:10479000F04107463E6806F500640025606820F099
:1047A000010060603846FFF777FD10213046FFF7C3
:1047B00089F8FF2006EB4511C1F80809C1F8080B7C
:1047C0006D1C082DF6D34FF0FF30A0614FF00110A3
:1047D000E061606940F001006061606940F00200E2
:1047E0006061606940F008006061206940F001008C
:1047F0002061206940F002002061206940F008003B
:10480000206100213046FFF7F7F83046FEF7DAFE68
:10481000012087F8E4027868026A002A04D038464A
:10482000BDE8F04101211047BDE8F0812DE9F041DC
:1048300006463768002210213846FFF777F83A6AB3
:10484000C2F30A15C2F3434002F00F0202EB420129
:1048500001EBC20106EB810404F5B674022802D014
:1048600006280DD015E0A5B1ABB238466169FFF757
:10487000B6F8606928446061E0692844E06108E0B6
:10488000ABB206F535713846FFF7A9F8E069284460
:10489000E0613846BDE8F04101221021FFF746B83B
:1048A00010B5002400F533718A88002A01D1CA8826
:1048B0001AB1FFF7CFFA204610BD897801F07F01C9
:1048C00090F8E422032A06D080F8E61231B10221E2
:1048D00080F8E41205E0FFF7BDFAECE7012180F86B
:1048E000E412FFF7AFFAE6E770B50446002504F5D9
:1048F0003371274E887830708A88002A01D1C988A0
:1049000021B12046FFF7A6FA284670BD94F8E412BC
:10491000022905D0032915D02046FFF79BFAF3E7BB
:1049200060B184F8E902032084F8E4026068016859
:10493000204688472046FFF785FAE5E72046FFF73F
:1049400081FAE1E790B194F8E91281421BD16068E5
:10495000416820468847307884F8E9026068016839
:10496000204688472046FFF76DFACDE7022184F8FC
:10497000E41284F8E90260684168204688472046CE
:10498000FFF760FAC0E72046FFF75CFABCE70000DB
:10499000A102002070B50446002504F53371488853
:1049A000012808D184F8E7026068826820469047B1
:1049B0002046FFF747FA284670BD10B502680B067F
:1049C00001F07F0101EB410404EBC10100EB810424
:1049D00001D50C3401E004F5B67421461046FEF70B
:1049E00031FF0120607310BD0A7802704A7842706E
:1049F0008A78CB7802EB032242800A794B7902EB6A
:104A0000032282808A79C97902EB0121C180704733
:104A10004168C969002900D00847704710B50446AD
:104A20002068D0F80808C00712D094F8E40284F88F
:104A3000E502042084F8E4022046FFF704FB6068E6
:104A4000026A002A04D02046BDE810400221104727
:104A500010BD10B504462068D0F8041821F00101FB
:104A6000C0F804182068FEF7B3FF94F8E50284F854
:104A7000E4026068026A002A04D02046BDE81040C3
:104A80000321104710BD322E312E300000000000EF
:104A900001020304000000000102030402040608EE
:104AA000020C0810000000000000000001020304D6
:104AB00006070809000000000000000001020304CE
:104AC00006070809E44A000800000020A8020000C8
:104AD0000C010008BC4C0008A80200205023000074
:104AE00068010008411206100BFF0901A10119011C
:104AF0002940151326FF167508954081290F12913C
:104B000032C035120101021F403C2E2170100C23CF
:104B10000301140902622908246409042302FF170F
:104B20000507050102402D01070581071008080B44
:104B3000010202020114090401190A1201130524D9
:104B40001610010524011D020424020E100906019D
:104B5000020705820308150A09040233020A1C072A
:104B600005833B19072A03072110080403090412CF
:104B7000035812491256124E123112391238323776
:104B80001A24141256122D124C1269126E126B1244
:104B9000201243124D1A53281A531612441241126E
:104BA000502A1228213320621A380819A6111A9C9B
:104BB0000829181AA008191C111AB408321A4B181F
:104BC00001101A340832211A80081C1A033072129C
:104BD000321233123412351A36781A388012410ADA
:104BE0002542801391311B0899041A8904411AA5A2
:104BF000081AED041AAD041AB5045A9D1814050FCD
:104C00002115011C10052011DF60DDD88945C74C36
:104C10009CD2659D9E648A9F1C0306A67D31520A24
:104C2000290F12083A02C8121412032E57494E5582
:104C3000538F711280120412011A288012651A769D
:104C40009A1A63081A49A01A7408127212663A6115
:104C50001212471A55163244124E1A7BB81A44D211
:104C60001A33041A35B61A44BE1A32E629101A2D20
:104C70007B1A36021A330A1A41021A330C122D3AE1
:104C8000310C3A451C290412331A37021236527D70
:104C900013F92B1B087D0413A92C1B08C9081AAD96
:104CA000041AD1041A691013712D1B08CD0C41028E
:0C4CB0001C012AC21E3927A113127A0031
:04000005080000D11E
:00000001FF
